:020000040800F2
:100000000000012039070008950600089D06000839
:10001000A5060008AD060008B506000800000000AF
:10002000000000000000000000000000BD06000805
:10003000C906000800000000D5060008E106000817
:100040008107000881070008810700088107000870
:100050008107000881070008810700088107000860
:100060008107000881070008810700088107000850
:100070008107000881070008ED0600080107000855
:100080008107000881070008810700088107000830
:100090008107000881070008810700088107000820
:1000A0008107000881070008810700088107000810
:1000B0008107000881070008810700088107000800
:1000C00081070008810700088107000881070008F0
:1000D000810700081507000881070008810700084C
:1000E00081070008810700088107000881070008D0
:1000F00081070008810700088107000881070008C0
:1001000081070008810700088107000881070008AF
:10011000810700088107000881070008810700089F
:10012000810700088107000881070008810700088F
:1001300000000000000000000000000000000000BF
:1001400000000000000000000000000000000000AF
:10015000000000000000000000000000000000009F
:10016000000000000000000000000000000000008F
:10017000000000000000000000000000000000007F
:10018000000000000000000000000000000000006F
:10019000000000000000000000000000000000005F
:1001A000000000000000000000000000000000004F
:1001B000000000000000000000000000000000003F
:1001C000000000000000000000000000000000002F
:1001D000000000000000000000000000000000001F
:0401E0005FF8E0F1F3
:1001E40010B5054C237833B9044B13B10448AFF36D
:1001F40000800123237010BD1002002000000000C5
:10020400183A000808B5034B1BB103490348AFF380
:10021400008008BD0000000014020020183A000805
:1002240080B500AF00F05CFD00F022F800F0C6F8E5
:1002340000F09EF800F062F80A4B1B78002B08D0FF
:10024400084B00221A70084B1B88062B01D900F0BA
:1002540053FB0121054801F007FF642000F0A2FDD3
:10026400EAE700BF84130020861300200010014039
:1002740080B590B000AF07F118032822002118467A
:1002840003F08EFB3B1D00221A605A609A60DA600C
:100294001A610123BB614FF48033FB6100233B628D
:1002A4000123BB6202237B634FF48033BB634FF4AF
:1002B400E013FB6307F11803184601F0EFFE034651
:1002C400002B01D000F002F90F237B600223BB60F6
:1002D4000023FB604FF480633B6100237B613B1D83
:1002E4000221184602F05CF90346002B01D000F00D
:1002F400EDF800BF4037BD4680BD000080B500AFBB
:10030400184B194A1A60174B4FF4E1325A60154BD7
:1003140000229A60134B0022DA60124B00221A6109
:10032400104B0C225A610F4B00229A610D4B002294
:10033400DA610C4802F0C2FA0346002B01D000F047
:10034400C5F8084B1B68DA68064B1B6842F01002BC
:10035400DA604FF488620549024802F06FFB00BF7F
:1003640080BD00BF2C02002000380140440F002053
:1003740080B582B000AF104B5B690F4A43F00103B4
:1003840053610D4B5B6903F001037B607B680022C2
:1003940000210E2000F001FE0E2000F01AFE0022C3
:1003A40000210F2000F0F9FD0F2000F012FE00BF25
:1003B4000837BD4680BD00BF0010024080B588B03C
:1003C40000AF07F1100300221A605A609A60DA60E5
:1003D400394B9B69384A43F010039361364B9B6950
:1003E40003F01003FB60FB68334B9B69324A43F014
:1003F40004039361304B9B6903F00403BB60BB6847
:100404002D4B9B692C4A43F0800393612A4B9B69D3
:1004140003F080037B607B68274B9B69264A43F08B
:1004240020039361244B9B6903F020033B603B68EA
:1004340000220121214801F0FFFD0022082120486B
:1004440001F0FAFD01233B6101237B610023BB61C1
:100454000223FB6107F110031946184801F058FC08
:1004640001233B6100237B610223BB6107F110037D
:100474001946144801F04CFC4FF400633B6100231F
:100484007B610223BB6107F1100319460E4801F09A
:100494003FFC08233B6101237B610023BB610223F2
:1004A400FB6107F110031946054801F031FC00BF58
:1004B4002037BD4680BD00BF00100240001001403F
:1004C4000014014000080140001C014080B400AF4A
:1004D40072B600BF00BFFDE780B485B000AF154B16
:1004E4009B69144A43F001039361124B9B6903F027
:1004F4000103BB60BB680F4BDB690E4A43F08053BA
:10050400D3610C4BDB6903F080537B607B680A4B3F
:100514005B68FB60FB6823F0E063FB60FB6843F00F
:100524000073FB60044AFB68536000BF1437BD4688
:1005340080BC7047001002400000014080B588B0C4
:1005440000AF786007F1100300221A605A609A60C5
:10055400DA607B681B68474A934240F08680464BCA
:100564009B69454A43F480439361434B9B6903F47D
:100574008043FB60FB68404B9B693F4A43F00403A4
:1005840093613D4B9B6903F00403BB60BB684FF46C
:1005940000733B6102237B610323FB6107F11003BA
:1005A4001946364801F0B4FB4FF480633B610023E5
:1005B4007B610023BB6107F1100319462F4801F04A
:1005C400A7FB2F4B2F4A1A602D4B00225A602C4B4D
:1005D40000229A602A4B8022DA60294B00221A6199
:1005E400274B00225A61264B00229A61244B002299
:1005F400DA61234800F008FD0346002B01D0FFF721
:1006040065FF7B681E4ADA631D4A7B6853621E4B92
:100614001E4A1A601C4B10225A601B4B00229A601F
:10062400194B8022DA60184B00221A61164B002203
:100634005A61154B00229A61134B0022DA61124869
:1006440000F0E2FC0346002B01D0FFF73FFF7B687C
:100654000D4A9A630C4A7B685362002200212520CC
:1006640000F09BFC252000F0B4FC00BF2037BD4601
:1006740080BD00BF00380140001002400008014066
:100684007402002058000240B802002044000240D6
:1006940080B400AF00BFFDE780B400AF00BFFDE74A
:1006A40080B400AF00BFFDE780B400AF00BFFDE73A
:1006B40080B400AF00BFFDE780B400AF00BFBD460B
:1006C40080BC704780B400AF00BFBD4680BC70479B
:1006D40080B400AF00BFBD4680BC704780B500AF9A
:1006E40000F044FB00BF80BD80B500AF024800F0BD
:1006F400A5FE00BF80BD00BFB802002080B500AFDA
:10070400024800F09BFE00BF80BD00BF74020020C1
:1007140080B500AF034800F0A3FA024802F032FAB1
:1007240000BF80BD2C02002080B400AF00BFBD46D6
:1007340080BC7047FFF7F8FF0B480C490C4A0023B4
:1007440002E0D458C4500433C4188C42F9D3094A83
:10075400094C002301E013600432A242FBD303F0EE
:1007640027F9FFF75DFD7047000000200C02002010
:10077400643A000810020020B0130020FEE70000D5
:1007840080B485B000AF78600B467B800023FB818A
:1007940017E0FB891B021AB2FB891B0A9BB219469C
:1007A4007B681B784B40DBB20A4931F813301BB22B
:1007B40053401BB2FB817B88013B7B807B68013308
:1007C4007B607B88002BE4D1FB8918461437BD4637
:1007D40080BC70470400002080B584B000AF03469D
:1007E400FB710023FB810023BB81414B1A78414BF1
:1007F4001A703F4B5A783F4B5A703E4AFB799370BC
:10080400FB79012B20D13B4B0022DA70394B0222B9
:100814001A71374B5A79374B5A71354B9A79354B94
:100824009A7107213348FFF7ABFF0346BB81BB89AD
:100834001B0A9BB2DAB22F4B1A72BB89DAB22D4B68
:10084400DA710923FB814AE0FB79022B20D1294B81
:100854000022DA70274B02221A71254B5A79254B54
:100864005A71234B9A79234B9A7107212148FFF738
:1008740087FF0346BB81BB891B0A9BB2DAB21D4BBF
:100884001A72BB89DAB21B4BDA710923FB8126E0A9
:10089400FB79032B23D1174B0422DA70154B022268
:1008A4001A71134B5A79134B5A71114B9A79114B94
:1008B4009A7140F207410F48FFF762FF0346BB817C
:1008C400BB891B0A9BB2DAB20A4B83F80724BB89A3
:1008D400DAB2084B83F8082440F20943FB81FB8910
:1008E4001946044800F09AF900BF1037BD4680BD90
:1008F400440F0020040B002080B5ADF5826D00AFDD
:100904003C4B9B7887F80D3497F80D34012B13D1A9
:10091400384B9B791B029BB2364A52791344A7F891
:100924000A34B7F80A349B02C7F8043497F80D3434
:100934001846FFF751FF57E097F80D34022B3AD1D0
:100944002C4B9B791B029BB22A4A527913449BB2CB
:10095400013BA7F80A34B7F80A3403F5003320330F
:100964009B02C7F804340023A7F80E3410E0B7F84C
:100974000E34DA1DB7F80E341E49895C07F582621D
:10098400A2F58262D154B7F80E340133A7F80E34BD
:10099400B7F80E34B3F5806FE9D33B464FF40072D9
:1009A4001946D7F8040400F085F897F80D34184672
:1009B400FFF712FF18E097F80D34042B14D10E4BF7
:1009C4001B680E4A13600D4B1B681A460C4B1A60C9
:1009D4000C4B1B68C7F80034D7F8003483F308883D
:1009E40000BF074B1B68984700BF07F58267BD46E9
:1009F40080BD00BF440F00200480000800030020D5
:100A0400FC0200200080000880B483B000AF78604E
:100A14007B681B889BB218460C37BD4680BC704768
:100A240090B587B000AFF860B9601346FB8000232F
:100A3400FB820EE0FB8A5B00BA68D418F868FFF703
:100A4400E3FF03462380FB680233FB60FB8A013328
:100A5400FB82FA8AFB889A42ECD300BF00BF1C37A2
:100A6400BD4690BDB0B586B000AFF860B96013461E
:100A7400FB800023FB8214E0FB8A5B00BA6813440A
:100A84001B889BB200221C46154622462B46F96859
:100A9400012000F03DFFFB680233FB60FB8A013359
:100AA400FB82FA8AFB889A42E6D300BF00BF18375C
:100AB400BD46B0BD80B58EB000AFF860B9601346D6
:100AC400FB80FB68B3F1006FC0F0A180FB68B3F159
:100AD400205F80F09C8000F08BFFFB6803F178437B
:100AE400BB62BB6ADB0A7B63BB6AC3F30A035B08B2
:100AF4007B867B8EC3F580633B86FA883B8E9A4265
:100B040001D8FB883B867B6B03F58033DB024FF413
:100B1400806241491846FFF783FF0023FB850CE000
:100B24007A8EFB8D13443C4A32F813304FF6FF7231
:100B3400934207D1FB8D0133FB85FA8D3B8E9A429C
:100B4400EED300E000BFFA8D3B8E9A4232D20023EE
:100B5400BB610123FB6101237B627B6B03F5803363
:100B6400DB023B6207F1140207F118031146184631
:100B740001F026F80023FB850DE0FB8D5B00BA68CD
:100B84001A44F98D7B8E0B441188234A22F81310E2
:100B9400FB8D0133FB85FA8D3B8E9A42EDD37B6B43
:100BA40003F58033DB024FF480621B491846FFF7DC
:100BB40059FF05E03B8E1A46B968F868FFF752FF03
:100BC400FA883B8E9A421ED07B6B01337B630023F1
:100BD4007B863B8E5B00BA681344BB603B8E5B0034
:100BE4001A46FB681344FB60FA883B8ED31AFB80D9
:100BF400FB88B3F5806F03D94FF480633B8682E7AB
:100C0400FB883B867FE700BF00F018FF00E000BFD1
:100C14003837BD4680BD00BF0403002080B582B0D4
:100C240000AF78600B467B807B88B3F5886F28BF64
:100C34004FF488637B807B881A467968064802F003
:100C4400DBFE7B881A460449044801F087FE00BF96
:100C54000837BD4680BD00BF040B00202C020020D5
:100C640080B584B000AF78607B681B68164A9342F5
:100C740026D1164B1B681B6803F01003102B1FD1E1
:100C84000023FB60114B1B681B68FB600F4B1B6848
:100C94005B68FB60FB680D4801F0F5FE0C4B1B68BC
:100CA4005B689BB2C3F588639AB20A4B1A800A4BFD
:100CB40001221A704FF488620849044801F0BEFE0C
:100CC40000BF1037BD4680BD003801402C02002013
:100CD400740200208613002084130020440F002097
:100CE40080B500AF084B1B68074A43F0100313603C
:100CF400032000F047F90F2000F008F8FFF7ECFBA1
:100D04000023184680BD00BF0020024080B582B099
:100D140000AF7860124B1A68124B1B7819464FF4D7
:100D24007A73B3FBF1F3B2FBF3F3184600F05FF907
:100D34000346002B01D001230EE07B680F2B0AD859
:100D4400002279684FF0FF3000F027F9064A7B68EB
:100D54001360002300E0012318460837BD4680BD18
:100D640000000020080200200402002080B400AF2C
:100D7400054B1B781A46054B1B681344034A136042
:100D840000BFBD4680BC70470802002088130020C5
:100D940080B400AF024B1B681846BD4680BC704748
:100DA4008813002080B584B000AF7860FFF7F0FFAF
:100DB400B8607B68FB60FB68B3F1FF3F05D00A4B6A
:100DC4001B781A46FB681344FB6000BFFFF7E0FF83
:100DD4000246BB68D31AFA689A42F7D800BF00BF2C
:100DE4001037BD4680BD00BF0802002080B485B026
:100DF40000AF78607B6803F00703FB600C4BDB6893
:100E0400BB60BA684FF6FF031340BB60FB681A026D
:100E1400BB68134343F0BF6343F40033BB60044A2D
:100E2400BB68D36000BF1437BD4680BC704700BFA9
:100E340000ED00E080B400AF044BDB681B0A03F054
:100E440007031846BD4680BC704700BF00ED00E0B4
:100E540080B483B000AF0346FB7197F90730002BD1
:100E64000BDBFB7903F01F02064997F907305B0996
:100E7400012000FA02F241F8232000BF0C37BD46DE
:100E840080BC704700E100E080B483B000AF03464B
:100E94003960FB7197F90730002B0ADB3B68DAB243
:100EA4000C4997F907301201D2B20B4483F800239E
:100EB4000AE03B68DAB20849FB7903F00F03043B0C
:100EC4001201D2B20B441A7600BF0C37BD4680BC67
:100ED400704700BF00E100E000ED00E080B489B09D
:100EE40000AFF860B9607A60FB6803F00703FB6148
:100EF400FB69C3F10703042B28BF0423BB61FB690F
:100F04000433062B02D9FB69033B00E000237B6119
:100F14004FF0FF32BB6902FA03F3DA43BB681A40AD
:100F24007B699A404FF0FF317B6901FA03F3D9439F
:100F34007B680B40134318462437BD4680BC70477A
:100F440080B582B000AF78607B68013BB3F1807FED
:100F540001D301230FE00A4A7B68013B53600F2150
:100F64004FF0FF30FFF790FF054B00229A60044BCF
:100F740007221A60002318460837BD4680BD00BF0B
:100F840010E000E080B582B000AF78607868FFF7C9
:100F94002DFF00BF0837BD4680BD80B586B000AFC9
:100FA4000346B9607A60FB7300237B61FFF742FF5D
:100FB40078617A68B9687869FFF790FF024697F913
:100FC4000F3011461846FFF75FFF00BF1837BD46C4
:100FD40080BD80B582B000AF0346FB7197F907303E
:100FE4001846FFF735FF00BF0837BD4680BD80B502
:100FF40082B000AF78607868FFF7A2FF0346184616
:101004000837BD4680BD000080B485B000AF78606D
:101014000023FB607B68002B01D1012359E07B682E
:101024001B681A462D4B9A420FD87B681B681A46D8
:101034002B4B13442B4AA2FB03231B099A007B6806
:101044001A647B68284ADA630EE07B681B681A46D8
:10105400264B1344234AA2FB03231B099A007B68F3
:101064001A647B68224ADA637B68022283F82120AF
:101074007B681B681B68FB60FB6823F47F5323F0C9
:101084003003FB607B685A687B689B681A437B6803
:10109400DB681A437B681B691A437B685B691A43E4
:1010A4007B689B691A437B68DB691343FA681343C3
:1010B400FB607B681B68FA681A607B6800229A638D
:1010C4007B68012283F821207B68002283F820209A
:1010D400002318461437BD4680BC704707040240FD
:1010E400F8FFFDBFCDCCCCCC00000240F8FBFDBF27
:1010F4000004024080B586B000AFF860B9607A6041
:101104003B600023FB75FB6893F82030012B01D171
:1011140002234BE0FB68012283F82020FB6893F84C
:101124002130DBB2012B3AD1FB68022283F8212063
:10113400FB6800229A63FB681B681A68FB681B68DB
:1011440022F001021A603B687A68B968F86800F016
:10115400B1FBFB68DB6A002B08D0FB681B681A68CC
:10116400FB681B6842F00E021A600FE0FB681B6804
:101174001A68FB681B6822F004021A60FB681B688B
:101184001A68FB681B6842F00A021A60FB681B6855
:101194001A68FB681B6842F001021A6005E0FB68EC
:1011A400002283F820200223FB75FB7D18461837A4
:1011B400BD4680BD80B485B000AF78600023FB736A
:1011C4007B6893F82130DBB2022B08D07B680422C1
:1011D4009A637B68002283F82020012320E07B6847
:1011E4001B681A687B681B6822F00E021A607B6811
:1011F4001B681A687B681B6822F001021A607B680E
:101204001A6C7B68DB6B012101FA02F25A607B687D
:10121400012283F821207B68002283F82020FB7BB5
:1012240018461437BD4680BC7047000080B584B0B2
:1012340000AF78600023FB737B6893F82130DBB246
:10124400022B05D07B6804229A630123FB73D6E04A
:101254007B681B681A687B681B6822F00E021A60A0
:101264007B681B681A687B681B6822F001021A609D
:101274007B681B681A46644B9A4258D97B681B6882
:10128400624A93424FD07B681B68614A934248D0BC
:101294007B681B685F4A934240D07B681B685E4A48
:1012A400934238D07B681B685C4A934230D07B6899
:1012B4001B685B4A934228D07B681B68524A93425E
:1012C40020D07B681B68574A934219D07B681B68FF
:1012D400554A934212D07B681B68544A93420AD001
:1012E4007B681B68524A934202D14FF480531BE03F
:1012F4004FF4803318E04FF4807315E0102313E0AB
:10130400012311E04FF080730EE04FF480130BE0E3
:101314004FF4803308E04FF4805305E04FF48073BA
:1013240002E0102300E00123424A536057E07B6847
:101334001B68364A93424FD07B681B68344A9342F9
:1013440048D07B681B68334A934240D07B681B6853
:10135400314A934238D07B681B68304A934230D07C
:101364007B681B682E4A934228D07B681B68264AF8
:10137400934220D07B681B682A4A934219D07B6829
:101384001B68294A934212D07B681B68274A934200
:101394000AD07B681B68264A934202D14FF48053DB
:1013A4001BE04FF4803318E04FF4807315E01023F2
:1013B40013E0012311E04FF080730EE04FF480132B
:1013C4000BE04FF4803308E04FF4805305E04FF412
:1013D400807302E0102300E00123174A53607B6806
:1013E400012283F821207B68002283F820207B6877
:1013F4005B6B002B03D07B685B6B78689847FB7B47
:1014040018461037BD4680BD8000024008000240E7
:101414001C000240300002404400024058000240D8
:101424006C000240080402401C04024030040240E4
:1014340044040240000402400000024080B584B02D
:1014440000AF78607B68DB6B1B68FB607B681B68A4
:101454001B68BB607B681B6C04229A40FB681340CA
:10146400002B00F0F180BB6803F00403002B00F0B4
:10147400EB807B681B681B6803F02003002B07D1FB
:101484007B681B681A687B681B6822F004021A6078
:101494007B681B681A465F4B9A4258D97B681B6865
:1014A4005D4A93424FD07B681B685C4A934248D0A4
:1014B4007B681B685A4A934240D07B681B68594A30
:1014C400934238D07B681B68574A934230D07B687C
:1014D4001B68564A934228D07B681B684D4A934246
:1014E40020D07B681B68524A934219D07B681B68E2
:1014F400504A934212D07B681B684F4A93420AD0E9
:101504007B681B684D4A934202D14FF480431BE031
:101514004FF4802318E04FF4806315E0402313E078
:10152400042311E04FF080630EE04FF480030BE0DE
:101534004FF4802308E04FF4804305E04FF48063C8
:1015440002E0402300E004233D4A536057E07B68F7
:101554001B68314A93424FD07B681B682F4A9342E1
:1015640048D07B681B682E4A934240D07B681B6836
:101574002C4A934238D07B681B682B4A934230D064
:101584007B681B68294A934228D07B681B68214AE0
:10159400934220D07B681B68254A934219D07B680C
:1015A4001B68244A934212D07B681B68224A9342E8
:1015B4000AD07B681B68214A934202D14FF48043CE
:1015C4001BE04FF4802318E04FF4806315E04023C0
:1015D40013E0042311E04FF080630EE04FF4800326
:1015E4000BE04FF4802308E04FF4804305E04FF410
:1015F400806302E0402300E00423124A53607B68C6
:10160400DB6A002B00F036817B68DB6A78689847D8
:1016140030E100BF80000240080002401C0002408C
:101624003000024044000240580002406C00024076
:10163400080402401C0402403004024044040240F6
:1016440000040240000002407B681B6C02229A40A6
:10165400FB681340002B00F0DD80BB6803F002033D
:10166400002B00F0D7807B681B681B6803F0200305
:10167400002B0BD17B681B681A687B681B6822F0FF
:101684000A021A607B68012283F821207B681B68A8
:101694001A467B4B9A4258D97B681B68794A934215
:1016A4004FD07B681B68784A934248D07B681B689C
:1016B400764A934240D07B681B68754A934238D07F
:1016C4007B681B68734A934230D07B681B68724AFC
:1016D400934228D07B681B68694A934220D07B6878
:1016E4001B686E4A934219D07B681B686C4A93420C
:1016F40012D07B681B686B4A93420AD07B681B68D4
:10170400694A934202D14FF400531BE04FF4003373
:1017140018E04FF4007315E0202313E0022311E0D6
:101724004FF000730EE04FF400130BE04FF400335E
:1017340008E04FF4005305E04FF4007302E0202367
:1017440000E00223594A536057E07B681B684D4A06
:1017540093424FD07B681B684B4A934248D07B68C6
:101764001B684A4A934240D07B681B68484A9342AC
:1017740038D07B681B68474A934230D07B681B682B
:10178400454A934228D07B681B683D4A934220D047
:101794007B681B68414A934219D07B681B68404AA6
:1017A400934212D07B681B683E4A93420AD07B68FE
:1017B4001B683D4A934202D14FF400531BE04FF49F
:1017C400003318E04FF4007315E0202313E00223E4
:1017D40011E04FF000730EE04FF400130BE04FF4F0
:1017E400003308E04FF4005305E04FF4007302E0C7
:1017F400202300E002232E4A53607B68002283F8F2
:1018040020207B689B6A002B34D07B689B6A7868B5
:1018140098472FE07B681B6C08229A40FB681340B2
:10182400002B28D0BB6803F00803002B23D07B686F
:101834001B681A687B681B6822F00E021A607B68BA
:101844001A6C7B68DB6B012101FA02F25A607B6837
:1018540001229A637B68012283F821207B6800229D
:1018640083F820207B681B6B002B04D07B681B6BE8
:101874007868984700BF00BF1037BD4680BD00BFE1
:1018840080000240080002401C0002403000024078
:1018940044000240580002406C0002400804024028
:1018A4001C0402403004024044040240000402408C
:1018B4000000024080B485B000AFF860B9607A607F
:1018C4003B60FB681A6CFB68DB6B012101FA02F2D6
:1018D4005A60FB681B683A685A60FB685B68102BA7
:1018E40008D1FB681B687A689A60FB681B68BA6851
:1018F400DA6007E0FB681B68BA689A60FB681B68DB
:101904007A68DA6000BF1437BD4680BC70470000B7
:10191400F0B587B000AFF860B960C7E900230123D0
:10192400FB750023BB7500237B752F4B1B7E012B9E
:1019340001D1022354E02C4B01221A764CF2503090
:1019440000F0A8F80346FB75FB7D002B44D1FB682F
:10195400012B02D101237B7507E0FB68022B02D126
:1019640002237B7501E004237B750023BB752DE006
:10197400BB7D5A00BB6802EB030CBB7D1901D7E9A0
:101984000023C1F12006A1F1200022FA01F403FA98
:1019940006F6344323FA00F0044323FA01F5A3B214
:1019A4001946604600F05AF84CF2503000F072F8D4
:1019B4000346FB750D4B1B690C4A23F001031361AD
:1019C400FB7D002B07D1BB7D0133BB75BA7D7B7DCD
:1019D4009A42CDD300E000BF034B00221A76FB7D70
:1019E40018461C37BD46F0BD90130020002002406D
:1019F40080B483B000AF0023FB710D4B1B6903F06F
:101A04008003002B0DD00A4B0A4A5A60084B0A4A3D
:101A14005A60074B1B6903F08003002B01D001239C
:101A2400FB71FB7918460C37BD4680BC704700BF7C
:101A34000020024023016745AB89EFCD80B400AF9D
:101A4400054B1B69044A43F08003136100231846C5
:101A5400BD4680BC704700BF0020024080B483B004
:101A640000AF78600B467B80084B0022DA61084B9C
:101A74001B69074A43F0010313617B687A881A8063
:101A840000BF0C37BD4680BC704700BF90130020D8
:101A94000020024080B584B000AF7860FFF778F989
:101AA400F86010E07B68B3F1FF3F0CD07B68002B3B
:101AB40007D0FFF76DF90246FB68D31A7A689A4299
:101AC40001D2032325E0154BDB6803F00103002B4F
:101AD400E8D1124BDB6803F02003002B02D00F4B3C
:101AE4002022DA600D4BDB6803F01003002B0BD1CE
:101AF4000A4BDB6903F00103002B05D1074BDB68BC
:101B040003F00403002B03D000F00AF8012300E0E3
:101B1400002318461037BD4680BD00BF0020024098
:101B240080B483B000AF00237B60234BDB6803F0F9
:101B34001003002B09D0214BDB6943F002031F4A39
:101B4400D3617B6843F010037B601B4BDB6803F0BD
:101B54000403002B09D0194BDB6943F00103174A36
:101B6400D3617B6843F004037B60134BDB6903F0B0
:101B74000103002B0BD0114BDB6943F004030F4A24
:101B8400D3610D4BDB690C4A23F00103D3617B68FD
:101B940040F20112934206D1074BDB69064A23F057
:101BA4000103D36102E0044A7B68D36000BF0C37B1
:101BB400BD4680BC704700BF002002409013002047
:101BC40080B584B000AF786039600123FB730023D3
:101BD400BB602F4B1B7E012B01D1022353E02C4B06
:101BE40001221A767B681B68022B16D14CF2503006
:101BF400FFF750FF0346002B41D1012000F04CF8C1
:101C04004CF25030FFF746FF0346FB73214B1B6930
:101C1400204A23F00403136131E04CF25030FFF703
:101C240039FF0346002B2AD13B684FF0FF321A607C
:101C34007B689B68BB6019E0B86800F049F84CF217
:101C44005030FFF727FF0346FB73124B1B69114A01
:101C540023F002031361FB7B002B03D03B68BA68BB
:101C64001A600CE0BB6803F50063BB607B68DB684B
:101C7400DA027B689B681344BA689A42DCD3044B4B
:101C840000221A76FB7B18461037BD4680BD00BF84
:101C9400901300200020024080B483B000AF78602D
:101CA400094B0022DA61094B1B69084A43F004031B
:101CB4001361064B1B69054A43F04003136100BFDF
:101CC4000C37BD4680BC70479013002000200240B2
:101CD40080B483B000AF78600B4B0022DA610B4B09
:101CE4001B690A4A43F002031361084A7B68536183
:101CF400064B1B69054A43F04003136100BF0C37D0
:101D0400BD4680BC704700BF9013002000200240F5
:101D140080B48BB000AF7860396000237B6200230D
:101D24003B6279E101227B6A02FA03F3FB613B68BF
:101D34001B68FA691340BB61BA69FB699A4240F0B7
:101D440068813B685B68964A93425ED0944A9342AA
:101D540075D8944A934258D0924A93426FD8924A83
:101D6400934252D0904A934269D8904A93424CD0BD
:101D74008E4A934263D88E4A934246D08C4A934209
:101D84005DD8122B2AD8122B59D801A252F823F06D
:101D94000F1E0008E91D0008FB1D00083D1E000879
:101DA400431E0008431E0008431E0008431E00088B
:101DB400431E0008431E0008431E0008431E00087B
:101DC400431E0008431E0008431E0008431E00086B
:101DD400431E0008F11D0008051E0008754A9342C1
:101DE40013D02CE03B68DB683B6229E03B68DB688E
:101DF40004333B6224E03B68DB6808333B621FE04A
:101E04003B68DB680C333B621AE03B689B68002B41
:101E140002D104233B6213E03B689B68012B05D18C
:101E240008233B627B68FA691A6109E008233B6274
:101E34007B68FA695A6103E000233B6200E000BF5B
:101E4400BB69FF2B01D87B6801E07B6804337B61AD
:101E5400BB69FF2B02D87B6A9B0002E07B6A083BCC
:101E64009B003B617B691A680F213B6901FA03F30C
:101E7400DB431A40396A3B6901FA03F31A437B696D
:101E84001A603B685B6803F08053002B00F0C1804C
:101E9400494B9B69484A43F001039361464B9B6954
:101EA40003F00103BB60BB68444A7B6A9B080233AE
:101EB40052F82330FB607B6A03F003039B000F227C
:101EC40002FA03F3DB43FA681340FB607B683C4A85
:101ED40093421FD07B683B4A934219D07B683A4AAD
:101EE400934213D07B68394A93420DD07B68384AB9
:101EF400934207D07B68374A934201D105230AE015
:101F0400062308E0042306E0032304E0022302E09E
:101F1400012300E000237A6A02F003029200934056
:101F2400FA681343FB6025497B6A9B080233FA680D
:101F340041F823203B685B6803F48013002B06D030
:101F4400254B9A682449BB6913438B6006E0224BF6
:101F54009A68BB69DB43204913408B603B685B682C
:101F640003F40013002B06D01B4BDA681A49BB6933
:101F74001343CB6006E0184BDA68BB69DB431649B0
:101F84001340CB603B685B6803F40033002B25D01F
:101F9400114B5A681049BB6913434B6025E000BFDD
:101FA4000000321000003110000022100000211047
:101FB4000000121000001110001002400000014047
:101FC40000080140000C01400010014000140140D1
:101FD40000180140001C014000040140154B5A68E0
:101FE400BB69DB43134913404B603B685B6803F4F4
:101FF4008033002B06D00F4B1A680E49BB6913437C
:102004000B6006E00B4B1A68BB69DB4309491340BC
:102014000B607B6A01337B623B681A687B6A22FA35
:1020240003F3002B7FF47EAE00BF00BF2C37BD4608
:1020340080BC70470004014080B483B000AF786076
:102044000B467B8013467B707B78002B03D07A8809
:102054007B681A6103E07B881A047B681A6100BFFD
:102064000C37BD4680BC704780B485B000AF786043
:102074000B467B807B68DB68FB607A88FB681340D7
:102084001A04FB68D9437B880B401A437B681A61A6
:1020940000BF1437BD4680BC7047000080B586B0D1
:1020A40000AF78607B68002B01D1012372E27B686A
:1020B4001B6803F00103002B00F08780924B5B68E0
:1020C40003F00C03042B0CD08F4B5B6803F00C0360
:1020D400082B12D18C4B5B6803F48033B3F5803F3B
:1020E4000BD1894B1B6803F40033002B6CD07B6845
:1020F4005B68002B68D101234CE27B685B68B3F515
:10210400803F06D1804B1B687F4A43F480331360C1
:102114002EE07B685B68002B0CD17B4B1B687A4AF2
:1021240023F480331360784B1B68774A23F48023AD
:1021340013601DE07B685B68B3F5A02F0CD1724B74
:102144001B68714A43F4802313606F4B1B686E4A0B
:1021540043F4803313600BE06B4B1B686A4A23F42F
:1021640080331360684B1B68674A23F48023136031
:102174007B685B68002B13D0FEF70AFE386108E029
:10218400FEF706FE02463B69D31A642B01D90323EA
:1021940000E25D4B1B6803F40033002BF0D014E025
:1021A400FEF7F6FD386108E0FEF7F2FD02463B69F2
:1021B400D31A642B01D90323ECE1534B1B6803F4BA
:1021C4000033002BF0D100E000BF7B681B6803F0F4
:1021D4000203002B63D04C4B5B6803F00C03002B11
:1021E4000BD0494B5B6803F00C03082B1CD1464B06
:1021F4005B6803F48033002B16D1434B1B6803F058
:102204000203002B05D07B681B69012B01D001233D
:10221400C0E13D4B1B6823F0F8027B685B69DB007F
:10222400394913430B603AE07B681B69002B20D0CB
:10223400364B01221A60FEF7ABFD386108E0FEF769
:10224400A7FD02463B69D31A022B01D90323A1E15E
:102254002D4B1B6803F00203002BF0D02A4B1B68A4
:1022640023F0F8027B685B69DB00274913430B60AA
:1022740015E0264B00221A60FEF78AFD386108E05B
:10228400FEF786FD02463B69D31A022B01D90323CC
:1022940080E11D4B1B6803F00203002BF0D17B6827
:1022A4001B6803F00803002B3AD07B689B69002B62
:1022B40019D0174B01221A60FEF76AFD386108E055
:1022C400FEF766FD02463B69D31A022B01D90323AC
:1022D40060E10D4B5B6A03F00203002BF0D0012098
:1022E40000F0CEFA1CE00A4B00221A60FEF750FD03
:1022F40038610FE0FEF74CFD02463B69D31A022B0E
:1023040008D9032346E100BF001002400000424206
:1023140080044242924B5B6A03F00203002BE9D132
:102324007B681B6803F00403002B00F0A6800023E5
:10233400FB758B4BDB6903F08053002B0DD1884B6D
:10234400DB69874A43F08053D361854BDB6903F033
:102354008053BB60BB680123FB75824B1B6803F48D
:102364008073002B18D17F4B1B687E4A43F4807323
:102374001360FEF70DFD386108E0FEF709FD024623
:102384003B69D31A642B01D9032303E1754B1B6802
:1023940003F48073002BF0D07B68DB68012B06D13B
:1023A4006F4B1B6A6E4A43F0010313622DE07B6896
:1023B400DB68002B0CD16A4B1B6A694A23F00103CA
:1023C4001362674B1B6A664A23F0040313621CE022
:1023D4007B68DB68052B0CD1614B1B6A604A43F0B8
:1023E400040313625E4B1B6A5D4A43F001031362EC
:1023F4000BE05B4B1B6A5A4A23F001031362584BF0
:102404001B6A574A23F0040313627B68DB68002BC2
:1024140015D0FEF7BDFC38610AE0FEF7B9FC0246B0
:102424003B69D31A41F28832934201D90323B1E0C4
:102434004B4B1B6A03F00203002BEED014E0FEF7B3
:10244400A7FC38610AE0FEF7A3FC02463B69D31AF5
:1024540041F28832934201D903239BE0404B1B6A2B
:1024640003F00203002BEED1FB7D012B05D13C4B85
:10247400DB693B4A23F08053D3617B68DB69002B23
:1024840000F08780364B5B6803F00C03082B61D0A7
:102494007B68DB69022B46D1334B00221A60FEF7BE
:1024A40077FC386108E0FEF773FC02463B69D31AF7
:1024B400022B01D903236DE0294B1B6803F0007341
:1024C400002BF0D17B681B6AB3F5803F08D1244B05
:1024D4005B6823F400327B689B68214913434B609B
:1024E4001F4B5B6823F474127B68196A7B685B6A10
:1024F4000B431B4913434B601B4B01221A60FEF72D
:1025040047FC386108E0FEF743FC02463B69D31AF6
:10251400022B01D903233DE0114B1B6803F0007328
:10252400002BF0D035E0104B00221A60FEF730FC8F
:10253400386108E0FEF72CFC02463B69D31A022BF3
:1025440001D9032326E0064B1B6803F00073002B1C
:10255400F0D11EE07B68DB69012B07D1012319E070
:102564000010024000700040600042420B4B5B6868
:10257400FB60FB6803F480327B681B6A9A4206D1D5
:10258400FB6803F470127B685B6A9A4201D00123F2
:1025940000E0002318461837BD4680BD00100240F5
:1025A40080B584B000AF786039607B68002B01D1BE
:1025B4000123D0E06A4B1B6803F007033A689A4290
:1025C40010D9674B1B6823F0070265493B68134326
:1025D4000B60634B1B6803F007033A689A4201D00F
:1025E4000123B8E07B681B6803F00203002B20D0B2
:1025F4007B681B6803F00403002B05D0594B5B6810
:10260400584A43F4E06353607B681B6803F0080393
:10261400002B05D0534B5B68524A43F4605353601C
:10262400504B5B6823F0F0027B689B684D49134371
:102634004B607B681B6803F00103002B40D07B6870
:102644005B68012B07D1474B1B6803F40033002B55
:1026540015D101237FE07B685B68022B07D1414BD6
:102664001B6803F00073002B09D1012373E03D4B79
:102674001B6803F00203002B01D101236BE0394BEB
:102684005B6823F003027B685B68364913434B6045
:10269400FEF77EFBF8600AE0FEF77AFB0246FB6871
:1026A400D31A41F28832934201D9032353E02D4BCC
:1026B4005B6803F00C027B685B689B009A42EBD179
:1026C400274B1B6803F007033A689A4210D2244B45
:1026D4001B6823F0070222493B6813430B60204B1D
:1026E4001B6803F007033A689A4201D0012332E0E1
:1026F4007B681B6803F00403002B08D0194B5B684C
:1027040023F4E0627B68DB68164913434B607B6803
:102714001B6803F00803002B09D0124B5B6823F4F9
:1027240060527B681B69DB000E4913434B6000F069
:1027340021F802460B4B5B681B0903F00F030A499F
:10274400CB5C22FA03F3094A1360094B1B68184651
:10275400FEF7DCFA002318461037BD4680BD00BFE3
:102764000020024000100240303A0008000000201F
:102774000402002080B487B000AF0023FB60002374
:10278400BB6000237B6100237B6000233B611E4B05
:102794005B68FB60FB6803F00C03042B02D0082B7E
:1027A40003D027E0194B3B6127E0FB689B0C03F047
:1027B4000F03174AD35C7B60FB6803F48033002B60
:1027C40010D0114B5B685B0C03F00103114AD35C1E
:1027D400BB607B680D4A03FB02F2BB68B2FBF3F3F8
:1027E4007B6104E07B680C4A02FB03F37B617B6939
:1027F4003B6102E0054B3B6100BF3B6918461C3757
:10280400BD4680BC704700BF0010024000127A0031
:10281400483A0008583A000800093D0080B400AF67
:10282400024B1B681846BD4680BC70470000002060
:1028340080B500AFFFF7F2FF0246054B5B681B0A49
:1028440003F007030349CB5C22FA03F3184680BD67
:1028540000100240403A000880B500AFFFF7DEFFE9
:102864000246054B5B68DB0A03F007030349CB5CB4
:1028740022FA03F3184680BD00100240403A0008D3
:1028840080B485B000AF78600A4B1B680A4AA2FB8B
:1028940003235B0A7A6802FB03F3FB6000BFFB6857
:1028A4005A1EFA60002BF9D100BF00BF1437BD4691
:1028B40080BC704700000020D34D621080B582B008
:1028C40000AF78607B68002B01D1012342E07B6874
:1028D40093F84130DBB2002B06D17B68002283F8E9
:1028E40040207868FDF72AFE7B68242283F8412083
:1028F4007B681B68DA687B681B6822F40052DA6024
:10290400786800F0BFFF7B681B681A697B681B68E6
:1029140022F490421A617B681B685A697B681B68C1
:1029240022F02A025A617B681B68DA687B681B689C
:1029340042F40052DA607B6800225A647B682022E9
:1029440083F841207B68202283F842207B680022A0
:102954005A63002318460837BD4680BD80B58CB045
:1029640000AFF860B9601346FB80FB6893F8413010
:10297400DBB2202B56D1BB68002B02D0FB88002B86
:1029840001D101234FE0BA68FB681A62FB68FA8838
:102994009A84FB68FA88DA84FB6800225A64FB682C
:1029A400212283F84120FB689B6B214A9A62FB68D1
:1029B4009B6B204ADA62FB689B6B1F4A1A63FB68B5
:1029C4009B6B00225A6307F10803FB62FB68986B58
:1029D400FB6A1968FB681B6804331A46FB88FEF718
:1029E40089FBFB681B686FF040021A60FB681B6878
:1029F4001433BB61BB6953E8003F7B617B6943F0DF
:102A04008003BB62FB681B681433BA6A7A623B6258
:102A1400396A7A6A41E80023FB61FB69002BE5D13E
:102A2400002300E0022318463037BD4680BD00BFB6
:102A34001D310008B73100083B33000880B584B06D
:102A440000AFF860B9601346FB80FB6893F842302E
:102A5400DBB2202B12D1BB68002B02D0FB88002BE9
:102A640001D101230BE0FB6800221A63FB881A469C
:102A7400B968F86800F0AAFC034600E0022318468F
:102A84001037BD4680BD80B590B000AF786000239C
:102A9400FB637B681B685B6903F08003002B14BF36
:102AA40001230023DBB2FB637B6893F84130DBB284
:102AB400212B28D1FB6B002B25D07B681B6814339A
:102AC4007B627B6A53E8003F3B623B6A23F08003EE
:102AD400BB637B681B681433BA6B3A63FB62F96AA5
:102AE4003A6B41E80023BB62BB6A002BE5D17B68EB
:102AF4009B6B002B04D07B689B6B1846FEF75AFB3C
:102B0400786800F0FDFC7B681B685B6903F0400398
:102B1400002B14BF01230023DBB2FB637B6893F813
:102B24004230DBB2222B28D1FB6B002B25D07B68F3
:102B34001B6814333B613B6953E8003FFB60FB684F
:102B440023F040037B637B681B6814337A6BFA6160
:102B5400BB61B969FA6941E800237B617B69002B99
:102B6400E5D17B68DB6B002B04D07B68DB6B1846FC
:102B7400FEF720FB786800F0EAFC00231846403793
:102B8400BD4680BD80B5BAB000AF78607B681B6875
:102B94001B68C7F8E4307B681B68DB68C7F8E03063
:102BA4007B681B685B69C7F8DC300023C7F8D83042
:102BB4000023C7F8D430D7F8E43003F00F03C7F884
:102BC400D830D7F8D830002B0FD1D7F8E43003F041
:102BD4002003002B09D0D7F8E03003F02003002BAA
:102BE40003D0786800F090FD5BE2D7F8D830002B72
:102BF40000F0DE80D7F8DC3003F00103002B06D1AF
:102C0400D7F8E03003F49073002B00F0D180D7F8AC
:102C1400E43003F00103002B0BD0D7F8E03003F4C9
:102C24008073002B05D07B685B6C43F001027B68EA
:102C34005A64D7F8E43003F00403002B0BD0D7F820
:102C4400DC3003F00103002B05D07B685B6C43F0A0
:102C540002027B685A64D7F8E43003F00203002BC5
:102C64000BD0D7F8DC3003F00103002B05D07B68D0
:102C74005B6C43F004027B685A64D7F8E43003F0D9
:102C84000803002B11D0D7F8E03003F02003002B09
:102C940005D1D7F8DC3003F00103002B05D07B68A5
:102CA4005B6C43F008027B685A647B685B6C002BA6
:102CB40000F0F281D7F8E43003F02003002B08D0B1
:102CC400D7F8E03003F02003002B02D0786800F03E
:102CD4001BFD7B681B685B6903F04003002B14BF7A
:102CE40001230023DBB2C7F8D4307B685B6C03F0AC
:102CF4000803002B03D1D7F8D430002B4FD07868C9
:102D040000F025FC7B681B685B6903F04003002B23
:102D140041D07B681B681433C7F89C30D7F89C30CB
:102D240053E8003FC7F89830D7F8983023F04003B1
:102D3400C7F8D0307B681B681433D7F8D020C7F8A5
:102D4400A820C7F8A430D7F8A410D7F8A82041E8E1
:102D54000023C7F8A030D7F8A030002BD9D17B6866
:102D6400DB6B002B13D07B68DB6B7E4A5A637B687A
:102D7400DB6B1846FEF75AFA0346002B16D07B6825
:102D8400DB6B5B6B7A68D26B104698470EE0786811
:102D940000F0AEF90AE0786800F0AAF906E0786875
:102DA40000F0A6F97B6800225A6475E100BF73E164
:102DB4007B681B6B012B40F04F81D7F8E43003F0A4
:102DC4001003002B00F04881D7F8E03003F0100323
:102DD400002B00F041810023BB607B681B681B68EB
:102DE400BB607B681B685B68BB60BB687B681B68F7
:102DF4005B6903F04003002B00F0B6807B68DB6B5B
:102E04001B685B68A7F8BE30B7F8BE30002B00F033
:102E140045817B689B8DB7F8BE209A4280F03E8145
:102E24007B68B7F8BE20DA857B68DB6B9B69202B57
:102E340000F088807B681B680C33C7F88830D7F8AB
:102E4400883053E8003FC7F88430D7F8843023F43F
:102E54008073C7F8B8307B681B680C33D7F8B82088
:102E6400C7F89420C7F89030D7F89010D7F894207A
:102E740041E80023C7F88C30D7F88C30002BD9D127
:102E84007B681B6814337B677B6F53E8003F3B67A9
:102E94003B6F23F00103C7F8B4307B681B6814331D
:102EA400D7F8B420C7F88020FB67F96FD7F88020E3
:102EB40041E80023BB67BB6F002BE1D17B681B6833
:102EC40014333B663B6E53E8003FFB65FB6D23F018
:102ED4004003C7F8B0307B681B681433D7F8B020C0
:102EE400FA66BB66B96EFA6E41E800237B667B6EB8
:102EF400002BE3D17B68202283F842207B680022E8
:102F04001A637B681B680C33FB64FB6C53E8003F5B
:102F1400BB64BB6C23F01003C7F8AC307B681B6840
:102F24000C33D7F8AC20BA657B65796DBA6D41E88E
:102F340000233B653B6D002BE3D17B68DB6B1846BC
:102F4400FEF738F97B6802225A637B689A8D7B68A6
:102F5400DB8D9BB2D31A9BB21946786800F0D1F886
:102F64009CE000BF173600087B689A8D7B68DB8D78
:102F74009BB2D31AA7F8CE307B68DB8D9BB2002BB3
:102F840000F08E80B7F8CE30002B00F089807B688B
:102F94001B680C33BB63BB6B53E8003F7B637B6BE9
:102FA40023F49073C7F8C8307B681B680C33D7F8D8
:102FB400C8207A643B64396C7A6C41E80023FB6373
:102FC400FB6B002BE3D17B681B6814337B627B6A49
:102FD40053E8003F3B623B6A23F00103C7F8C43067
:102FE4007B681B681433D7F8C4203A63FB62F96A20
:102FF4003A6B41E80023BB62BB6A002BE3D17B68D8
:10300400202283F842207B6800221A637B681B68B5
:103014000C333B613B6953E8003FFB60FB6823F0E2
:103024001003C7F8C0307B681B680C33D7F8C02086
:10303400FA61BB61B969FA6941E800237B617B6984
:10304400002BE3D17B6802225A63B7F8CE301946CD
:10305400786800F056F823E0D7F8E43003F08003F2
:10306400002B09D0D7F8E03003F08003002B03D005
:10307400786800F0E2FA14E0D7F8E43003F0400393
:10308400002B0ED0D7F8E03003F04003002B08D01B
:10309400786800F021FB04E000BF02E000BF00E01C
:1030A40000BFE837BD4680BD80B483B000AF786010
:1030B40000BF0C37BD4680BC704780B483B000AFFE
:1030C400786000BF0C37BD4680BC704780B483B0C5
:1030D40000AF786000BF0C37BD4680BC704780B439
:1030E40083B000AF786000BF0C37BD4680BC70472A
:1030F40080B483B000AF786000BF0C37BD4680BC9D
:10310400704780B483B000AF78600B467B8000BF0B
:103114000C37BD4680BC704780B590B000AF786076
:103124007B685B6AFB637B681B681B6803F0200396
:10313400002B37D1FB6B0022DA84FB6B1B68143342
:103144007B627B6A53E8003F3B623B6A23F0800367
:10315400BB63FB6B1B681433BA6B3A63FB62F96A9B
:103164003A6B41E80023BB62BB6A002BE5D1FB6BE1
:103174001B680C333B613B6953E8003FFB60FB6811
:1031840043F040037B63FB6B1B680C337A6BFA617F
:10319400BB61B969FA6941E800237B617B69002B53
:1031A400E5D102E0F86BFFF77FFF00BF4037BD4673
:1031B40080BD80B584B000AF78607B685B6AFB60DB
:1031C400F868FFF77AFF00BF1037BD4680BD80B5B1
:1031D4009CB000AF78607B685B6AFB667B681B68A9
:1031E4001B6803F02003002B72D1FB6E0022DA85EA
:1031F400FB6E1B680C33FB64FB6C53E8003FBB6441
:10320400BB6C23F48073BB66FB6E1B680C33BA6E15
:10321400BA657B65796DBA6D41E800233B653B6D0A
:10322400002BE5D1FB6E1B681433BB63BB6B53E807
:10323400003F7B637B6B23F001037B66FB6E1B68A3
:1032440014337A6E7A643B64396C7A6C41E80023F7
:10325400FB63FB6B002BE5D1FB6E1B6814337B62B5
:103264007B6A53E8003F3B623B6A23F040033B66C2
:10327400FB6E1B6814333A6E3A63FB62F96A3A6B6D
:1032840041E80023BB62BB6A002BE5D1FB6E202220
:1032940083F84220FB6E1B6B012B19D1FB6E1B685C
:1032A4000C333B613B6953E8003FFB60FB6823F050
:1032B4001003FB65FB6E1B680C33FA6DFA61BB618E
:1032C400B969FA6941E800237B617B69002BE5D188
:1032D400FB6E00225A63FB6E1B6B012B06D1FB6E47
:1032E4009B8D1946F86EFFF70CFF02E0F86EFFF7AE
:1032F400EDFE00BF7037BD4680BD80B584B000AF21
:1033040078607B685B6AFB60FB6801225A63FB6838
:103314001B6B012B08D1FB689B8D5B089BB2194684
:10332400F868FFF7EEFE02E0F868FFF7D8FE00BF8A
:103334001037BD4680BD80B584B000AF78600023EF
:10334400FB607B685B6ABB60BB681B685B6903F0FE
:103354008003002B14BF01230023DBB2FB60BB6896
:1033640093F84130DBB2212B08D1FB68002B05D048
:10337400BB680022DA84B86800F0C2F8BB681B6836
:103384005B6903F04003002B14BF01230023DBB26D
:10339400FB60BB6893F84230DBB2222B08D1FB6898
:1033A400002B05D0BB680022DA85B86800F0CFF89E
:1033B400BB685B6C43F01002BB685A64B868FFF7E3
:1033C40097FE00BF1037BD4680BD000080B598B0A1
:1033D40000AFF860B9601346FB80BA68FB689A6274
:1033E400FB68FA889A85FB6800225A64FB682222EB
:1033F40083F84220FB68DB6B3E4A9A62FB68DB6B16
:103404003D4ADA62FB68DB6B3C4A1A63FB68DB6BA0
:1034140000225A6307F10803FB65FB68D86BFB685D
:103424001B6804331946FB6D1A68FB88FDF762FEBE
:1034340000233B61FB681B681B683B61FB681B68DE
:103444005B683B613B69FB681B69002B19D0FB6817
:103454001B680C333B643B6C53E8003FFB63FB6B22
:1034640043F48073BB65FB681B680C33BA6DFA6464
:10347400BB64B96CFA6C41E800237B647B6C002B61
:10348400E5D1FB681B681433FB62FB6A53E8003F19
:10349400BB62BB6A43F001037B65FB681B681433A2
:1034A4007A6DBA637B63796BBA6B41E800233B6343
:1034B4003B6B002BE5D1FB681B681433BB61BB6914
:1034C40053E8003F7B617B6943F040033B65FB6845
:1034D4001B6814333A6D7A623B62396A7A6A41E84E
:1034E4000023FB61FB69002BE5D1002318466037FC
:1034F400BD4680BDD3310008FF3200083B330008CD
:1035040080B489B000AF78607B681B680C33FB60C3
:10351400FB6853E8003FBB60BB6823F0C003FB615A
:103524007B681B680C33FA69BA617B617969BA6993
:1035340041E800233B613B69002BE5D17B682022F5
:1035440083F8412000BF2437BD4680BC704780B457
:1035540095B000AF78607B681B680C337B637B6B32
:1035640053E8003F3B633B6B23F49073FB647B683D
:103574001B680C33FA6C3A64FB63F96B3A6C41E8F0
:103584000023BB63BB6B002BE5D17B681B68143342
:103594003B623B6A53E8003FFB61FB6923F0010394
:1035A400BB647B681B681433BA6CFA62BB62B96A89
:1035B400FA6A41E800237B627B6A002BE5D17B68D1
:1035C4001B6B012B19D17B681B680C33FB60FB68F8
:1035D40053E8003FBB60BB6823F010037B647B6847
:1035E4001B680C337A6CBA617B617969BA6941E80A
:1035F40000233B613B69002BE5D17B68202283F8E3
:1036040042207B6800221A6300BF5437BD4680BC49
:10361400704780B584B000AF78607B685B6AFB60FC
:10362400FB680022DA85FB680022DA84F868FFF779
:103634005FFD00BF1037BD4680BD80B485B000AFCC
:1036440078607B6893F84130DBB2212B3ED17B68F4
:103654009B68B3F5805F14D17B681B69002B10D184
:103664007B681B6AFB60FB681B881A467B681B68C7
:10367400C2F308025A607B681B6A9A1C7B681A6250
:1036840008E07B681B6A591C7A6811621A787B68A7
:103694001B685A607B68DB8C9BB2013B9BB27A68E7
:1036A4001946D184002B0FD17B681B68DA687B68CC
:1036B4001B6822F08002DA607B681B68DA687B682A
:1036C4001B6842F04002DA60002300E0022318463F
:1036D4001437BD4680BC704780B582B000AF7860B7
:1036E4007B681B68DA687B681B6822F04002DA603A
:1036F4007B68202283F841207868FFF7D5FC0023FB
:1037040018460837BD4680BD80B58CB000AF7860E0
:103714007B6893F84230DBB2222B40F0AE807B68AA
:103724009B68B3F5805F17D17B681B69002B13D1AD
:103734000023FB627B689B6ABB627B681B685B68D7
:103744009BB2C3F308039AB2BB6A1A807B689B6A74
:103754009A1C7B689A6226E07B689B6AFB62002362
:10376400BB627B689B68B3F5805F07D07B689B680E
:10377400002B0AD17B681B69002B06D17B681B6870
:103784005B68DAB2FB6A1A7008E07B681B685B68E6
:10379400DBB203F07F03DAB2FB6A1A707B689B6AC0
:1037A4005A1C7B689A627B68DB8D9BB2013B9BB29F
:1037B4007A681946D185002B5DD17B681B68DA686D
:1037C4007B681B6822F02002DA607B681B68DA6879
:1037D4007B681B6822F48072DA607B681B685A6914
:1037E4007B681B6822F001025A617B68202283F8FF
:1037F40042207B6800225A637B681B6B012B35D106
:103804007B6800221A637B681B680C337B617B69CD
:1038140053E8003F3B613B6923F010037B627B6804
:103824001B680C337A6A3A62FB61F9693A6A41E8C7
:103834000023BB61BB69002BE5D17B681B681B6857
:1038440003F01003102B0AD10023FB607B681B6874
:103854001B68FB607B681B685B68FB60FB687B68BC
:103864009B8D19467868FFF74CFC02E07868FFF7F7
:103874002DFC002302E0002300E002231846303729
:10388400BD4680BD80B584B000AF78607B681B689E
:103894001B6923F440517B68DA687B681B680A4320
:1038A4001A617B689A687B681B691A437B685B6949
:1038B4001343BB607B681B68DB6823F4B05323F0BD
:1038C4000C037A681268B9680B43D3607B681B6881
:1038D4005B6923F440717B689A697B681B680A43BF
:1038E4005A617B681B682C4A934203D1FEF7B4FFEC
:1038F400F86002E0FEF79CFFF860FA6813469B004C
:1039040013449A001A447B685B689B00B2FBF3F390
:10391400224AA2FB03235B091901FA6813469B00A0
:1039240013449A001A447B685B689B00B2FBF3F271
:103934001A4BA3FB02035B09642000FB03F3D31AB5
:103944001B013233154AA2FB03235B0903F0F00386
:103954001944FA6813469B0013449A001A447B687E
:103964005B689B00B2FBF3F20C4BA3FB02035B0905
:10397400642000FB03F3D31A1B013233074AA2FB72
:1039840003235B0903F00F027B681B680A449A60F7
:1039940000BF1037BD4680BD003801401F85EB5184
:1039A40003460244934200D1704703F8011BF9E730
:1039B40070B500260C4D0D4C641BA410A64209D111
:1039C40000F028F800260A4D0A4C641BA410A642F5
:1039D40005D170BD55F8043B98470136EEE755F81C
:1039E400043B98470136F2E75C3A00085C3A000869
:1039F4005C3A0008603A00080A44914200F1FF333F
:103A040000D1704710B511F8014B914203F8014FF2
:103A1400F9D110BDF8B500BFF8BC08BC9E4670478C
:0C3A2400F8B500BFF8BC08BC9E46704717
:103A3000000000000000000001020304060708095E
:103A40000000000001020304020304050607080940
:0C3A50000A0B0C0D0E0F101001020000FC
:043A5C000902000853
:043A6000E501000874
:103A640000127A0000002110422063308440A550E7
:103A7400C660E770088129914AA16BB18CC1ADD1B0
:103A8400CEE1EFF13112100273325222B552944258
:103A9400F772D662399318837BB35AA3BDD39CC300
:103AA400FFF3DEE36224433420040114E664C774A4
:103AB400A44485546AA54BB528850995EEE5CFF550
:103AC400ACC58DD55336722611163006D776F666F8
:103AD4009556B4465BB77AA719973887DFF7FEE7A0
:103AE4009DD7BCC7C448E5588668A77840086118C4
:103AF40002282338CCC9EDD98EE9AFF948896999F0
:103B04000AA92BB9F55AD44AB77A966A711A500A97
:103B1400333A122AFDDBDCCBBFFB9EEB799B588B3F
:103B24003BBB1AABA66C877CE44CC55C222C033CE3
:103B3400600C411CAEED8FFDECCDCDDD2AAD0BBD8F
:103B4400688D499D977EB66ED55EF44E133E322E37
:103B5400511E700E9FFFBEEFDDDFFCCF1BBF3AAFDF
:103B6400599F788F8891A981CAB1EBA10CD12DC13D
:103B74004EF16FE18010A100C230E32004502540D3
:103B840046706760B9839893FBA3DAB33DC31CD333
:103B94007FE35EF3B1029012F322D2323542145223
:103BA40077625672EAB5CBA5A89589856EF54FE57F
:103BB4002CD50DC5E234C324A01481046674476473
:103BC40024540544DBA7FAB79987B8975FE77EF7D3
:103BD4001DC73CD7D326F2369106B01657667676C3
:103BE400154634564CD96DC90EF92FE9C899E9899F
:103BF4008AB9ABA94458654806782768C018E10813
:103C04008238A3287DCB5CDB3FEB1EFBF98BD89B72
:103C1400BBAB9ABB754A545A376A167AF10AD01A62
:103C2400B32A923A2EFD0FED6CDD4DCDAABD8BADBE
:103C3400E89DC98D267C076C645C454CA23C832CB2
:103C4400E01CC10C1FEF3EFF5DCF7CDF9BAFBABF12
:103C5400D98FF89F176E367E554E745E932EB23E02
:0C3C6400D10EF01E100000000100000056
:0400000508000739AF
:00000001FF
