:020000040800F2
:1000000000000120350A00085108000859080008BE
:100010006108000869080008710800080000000075
:100020000000000000000000000000007908000847
:100030008508000800000000910800089D080008DD
:100040007D0A00087D0A00087D0A00087D0A000874
:100050007D0A00087D0A00087D0A00087D0A000864
:100060007D0A00087D0A00087D0A00087D0A000854
:100070007D0A00087D0A0008A9080008BD080008DC
:100080007D0A00087D0A00087D0A00087D0A000834
:100090007D0A00087D0A00087D0A00087D0A000824
:1000A0007D0A00087D0A00087D0A00087D0A000814
:1000B0007D0A00087D0A00087D0A00087D0A000804
:1000C0007D0A00087D0A00087D0A00087D0A0008F4
:1000D0007D0A0008D10800087D0A00087D0A000892
:1000E0007D0A00087D0A00087D0A00087D0A0008D4
:1000F0007D0A00087D0A00087D0A00087D0A0008C4
:100100007D0A00087D0A00087D0A00087D0A0008B3
:100110007D0A00087D0A00087D0A00087D0A0008A3
:100120007D0A00087D0A00087D0A00087D0A000893
:1001300000000000000000000000000000000000BF
:1001400000000000000000000000000000000000AF
:10015000000000000000000000000000000000009F
:10016000000000000000000000000000000000008F
:10017000000000000000000000000000000000007F
:10018000000000000000000000000000000000006F
:10019000000000000000000000000000000000005F
:1001A000000000000000000000000000000000004F
:1001B000000000000000000000000000000000003F
:1001C000000000000000000000000000000000002F
:1001D000000000000000000000000000000000001F
:0401E0005FF8E0F1F3
:1001E40010B5054C237833B9044B13B10448AFF36D
:1001F40000800123237010BD68020020000000006D
:100204001454000808B5034B1BB103490348AFF36A
:10021400008008BD000000006C0200201454000897
:1002240080B582B000AF01F01BF800F03FF800F099
:1002340035F900F00DF900F0D1F800F099F800F06C
:100244007DF800F075FF0346FB8000F0DBFF3860AB
:10025400FB8819460F4804F055FA39680E4804F033
:1002640051FA0E4B1B78002B08D00C4B00221A704D
:100274000B4B1B88062B01D900F0DCFC012109483B
:1002840002F0B2F9642001F04DF8074802F009FACF
:10029400E7E700BF2C54000834540008441400203D
:1002A40046140020001001408402002080B590B064
:1002B40000AF07F1180328220021184604F077FA4A
:1002C4003B1D00221A605A609A60DA601A610923A1
:1002D400BB614FF48033FB6100233B620123BB62AB
:1002E40001233B6302237B634FF48033BB634FF4EE
:1002F400E013FB6307F11803184602F0E1F9034623
:10030400002B01D000F074F90F237B600223BB6043
:100314000023FB604FF480633B6100237B613B1D42
:100324000221184602F04EFC0346002B01D000F0D7
:100334005FF900BF4037BD4680BD000080B500AF07
:10034400094B0A4A1A60084B06225A60064B40F6CB
:10035400FF729A60044802F060F90346002B01D052
:1003640000F046F900BF80BD840200200030004048
:1003740080B500AF174B184A1A60164B4FF48272BF
:100384005A60144B00229A60124B0022DA60114B1F
:1003940000221A610F4B00225A610E4B4FF4007277
:1003A4009A610C4B0822DA610A4B00221A62094B4B
:1003B40000225A62074B00229A62064B0A22DA6232
:1003C400044802F08DFD0346002B01D000F010F923
:1003D40000BF80BD900200200038004080B500AF0F
:1003E400184B194A1A60174B4FF4E1325A60154BF7
:1003F40000229A60134B0022DA60124B00221A6129
:10040400104B0C225A610F4B00229A610D4B0022B3
:10041400DA610C4803F04BF80346002B01D000F0DE
:10042400E7F8084B1B68DA68064B1B6842F01002B9
:10043400DA604FF488620549024803F0F9F800BF16
:1004440080BD00BFE80200200038014004100020F5
:1004540080B582B000AF104B5B690F4A43F00103D3
:1004640053610D4B5B6903F001037B607B680022E1
:1004740000210E2001F051F80E2001F06AF800224C
:1004840000210F2001F049F80F2001F062F800BFAD
:100494000837BD4680BD00BF0010024080B58AB059
:1004A40000AF07F1180300221A605A609A60DA60FC
:1004B400494B9B69484A43F010039361464B9B693F
:1004C40003F010037B617B69434B9B69424A43F011
:1004D40004039361404B9B6903F004033B613B6954
:1004E4003D4B9B693C4A43F0800393613A4B9B69C3
:1004F40003F08003FB60FB68374B9B69364A43F08B
:1005040008039361344B9B6903F00803BB60BB6829
:10051400314B9B69304A43F0200393612E4B9B6916
:1005240003F020037B607B68002201212B4802F04A
:1005340043F800224FF48051294802F03DF800228C
:100544000821284802F038F80123BB610123FB612C
:1005540000233B6202237B6207F1180319461F48FC
:1005640001F096FE0123BB610023FB6102233B6281
:1005740007F1180319461C4801F08AFE4FF4006382
:10058400BB610023FB6102233B6207F11803194698
:10059400164801F07DFE4FF48053BB610123FB61DB
:1005A40000233B6202237B6207F1180319460C48BF
:1005B40001F06EFE0823BB610123FB6100233B6253
:1005C40002237B6207F118031946064801F060FE16
:1005D40000BF2837BD4680BD001002400010014016
:1005E400000C01400014014000080140001C0140BF
:1005F40080B400AF72B600BF00BFFDE780B485B021
:1006040000AF154B9B69144A43F001039361124BED
:100614009B6903F00103BB60BB680F4BDB690E4AA7
:1006240043F08053D3610C4BDB6903F080537B6050
:100634007B680A4B5B68FB60FB6823F0E063FB604C
:10064400FB6843F00073FB60044AFB68536000BF1F
:100654001437BD4680BC70470010024000000140C2
:1006640080B588B000AF786007F1100300221A60EB
:100674005A609A60DA607B681B681C4A934231D1E5
:100684001B4BDB691A4A43F48043D361184BDB6983
:1006940003F48043FB60FB68154B9B69144A43F0E9
:1006A40008039361124B9B6903F00803BB60BB68AA
:1006B4004FF420433B6102237B610323FB6107F179
:1006C400100319460B4801F0E3FD4FF480433B61EE
:1006D40000237B610023BB6107F110031946054821
:1006E40001F0D6FD00BF2037BD4680BD0038004074
:1006F40000100240000C014080B588B000AF786063
:1007040007F1100300221A605A609A60DA607B686D
:100714001B68474A934240F08680464B9B69454A92
:1007240043F480439361434B9B6903F48043FB6030
:10073400FB68404B9B693F4A43F0040393613D4B84
:100744009B6903F00403BB60BB684FF400733B6117
:1007540002237B610323FB6107F11003194636482A
:1007640001F096FD4FF480633B6100237B6100231D
:10077400BB6107F1100319462F4801F089FD2F4B87
:100784002F4A1A602D4B00225A602C4B00229A608B
:100794002A4B8022DA60294B00221A61274B00225F
:1007A4005A61264B00229A61244B0022DA612348C5
:1007B40000F0EAFE0346002B01D0FFF719FF7B6827
:1007C4001E4ADA631D4A7B6853621E4B1E4A1A6036
:1007D4001C4B10225A601B4B00229A60194B80223A
:1007E400DA60184B00221A61164B00225A61154B2D
:1007F40000229A61134B0022DA61124800F0C4FE11
:100804000346002B01D0FFF7F3FE7B680D4A9A6381
:100814000C4A7B68536200220021252000F07DFEF3
:10082400252000F096FE00BF2037BD4680BD00BFE6
:10083400003801400010024000080140300300204D
:1008440058000240740300204400024080B400AF0A
:1008540000BFFDE780B400AF00BFFDE780B400AF88
:1008640000BFFDE780B400AF00BFFDE780B400AF78
:1008740000BFFDE780B400AF00BFBD4680BC704739
:1008840080B400AF00BFBD4680BC704780B400AFE9
:1008940000BFBD4680BC704780B500AF00F026FDA8
:1008A40000BF80BD80B500AF024801F087F800BFEB
:1008B40080BD00BF7403002080B500AF024801F082
:1008C4007DF800BF80BD00BF3003002080B500AFBD
:1008D400034800F065FB024802F04EFF00BF80BDF4
:1008E400E802002080B586B000AFF860B9607A6095
:1008F40000237B610AE0AFF300800146BB685A1C09
:10090400BA60CAB21A707B6901337B617A697B6809
:100914009A42F0DB7B6818461837BD4680BD80B527
:1009240086B000AFF860B9607A6000237B6109E0AB
:10093400BB685A1CBA601B78184600F0F5FA7B694C
:1009440001337B617A697B689A42F1DB7B681846E4
:100954001837BD4680BD80B483B000AF78604FF0D7
:10096400FF3318460C37BD4680BC704780B483B053
:1009740000AF786039603B684FF400525A6000233E
:1009840018460C37BD4680BC704780B483B000AFB6
:100994007860012318460C37BD4680BC704780B48C
:1009A40085B000AFF860B9607A6000231846143748
:1009B400BD4680BC7047000080B586B000AF78604B
:1009C400144A154BD31A7B617B693B61134B1B683B
:1009D400002B02D1114B124A1A60104B1A687B6823
:1009E40013443A699A4207D203F030FF03460C22BB
:1009F4001A604FF0FF3309E0084B1B68FB60074B9C
:100A04001A687B681344054A1360FB681846183754
:100A1400BD4680BD0000012000040000B803002092
:100A2400C015002080B400AF00BFBD4680BC704735
:100A3400FFF7F8FF0B480C490C4A002302E0D45896
:100A4400C4500433C4188C42F9D3094A094C002316
:100A540001E013600432A242FBD303F0FDFEFFF772
:100A6400DFFB70470000002068020020A454000847
:100A740068020020BC150020FEE7000080B485B0A9
:100A840000AF78600B467B800023FB8117E0FB8975
:100A94001B021AB2FB891B0A9BB219467B681B789E
:100AA4004B40DBB20A4931F813301BB253401BB23E
:100AB400FB817B88013B7B807B6801337B607B8887
:100AC400002BE4D1FB8918461437BD4680BC70471F
:100AD4000400002080B584B000AF0346FB710023FE
:100AE400FB810023BB81414B1A78414B1A703F4B69
:100AF4005A783F4B5A703E4AFB799370FB79012B2D
:100B040020D13B4B0022DA70394B02221A71374B49
:100B14005A79374B5A71354B9A79354B9A7107216B
:100B24003348FFF7ABFF0346BB81BB891B0A9BB26B
:100B3400DAB22F4B1A72BB89DAB22D4BDA71092360
:100B4400FB814AE0FB79022B20D1294B0022DA7089
:100B5400274B02221A71254B5A79254B5A71234B84
:100B64009A79234B9A7107212148FFF787FF03469F
:100B7400BB81BB891B0A9BB2DAB21D4B1A72BB89BB
:100B8400DAB21B4BDA710923FB8126E0FB79032BD4
:100B940023D1174B0422DA70154B02221A71134B1E
:100BA4005A79134B5A71114B9A79114B9A7140F23D
:100BB40007410F48FFF762FF0346BB81BB891B0A4D
:100BC4009BB2DAB20A4B83F80724BB89DAB2084B2A
:100BD40083F8082440F20943FB81FB891946044841
:100BE40000F0BCF900BF1037BD4680BD04100020E2
:100BF400C40B002080B584B000AF78607B680433F8
:100C04001B680A4A1360094B1B681A46084B1A6092
:100C14007B681B68FB60FB6883F3088800BF044B98
:100C24001B68984700BF1037BD4680BDC003002035
:100C3400BC03002080B5ADF5826D00AF334B9B78CB
:100C440087F80D3497F80D34012B13D12F4B9B7972
:100C54001B029BB22D4A52791344A7F80A34B7F801
:100C64000A349B02C7F8043497F80D341846FFF78A
:100C740031FF45E097F80D34022B3AD1234B9B7991
:100C84001B029BB2214A527913449BB2013BA7F841
:100C94000A34B7F80A3403F5003320339B02C7F84B
:100CA40004340023A7F80E3410E0B7F80E34DA1D2C
:100CB400B7F80E341549895C07F58262A2F20C423A
:100CC400D154B7F80E340133A7F80E34B7F80E3404
:100CD400B3F5806FE9D33B1D4FF400721946D7F882
:100CE400040400F06DF897F80D341846FFF7F2FE8F
:100CF40006E097F80D34042B02D10548FFF77AFF7C
:100D040000BF07F58267BD4680BD00BF0410002008
:100D14000080000880B483B000AF78607B681B88D3
:100D24009BB218460C37BD4680BC704790B587B05F
:100D340000AFF860B9601346FB800023FB820EE02D
:100D4400FB8A5B00BA68D418F868FFF7E3FF034630
:100D54002380FB680233FB60FB8A0133FB82FA8A3F
:100D6400FB889A42ECD300BF00BF1C37BD4690BD40
:100D7400B0B586B000AFF860B9601346FB800023BD
:100D8400FB8214E0FB8A5B00BA6813441B889BB2A5
:100D940000221C46154622462B46F968012001F024
:100DA40077F8FB680233FB60FB8A0133FB82FA8A23
:100DB400FB889A42E6D300BF00BF1837BD46B0BDDA
:100DC40080B58EB000AFF860B9601346FB80FB6855
:100DD400B3F1006FC0F0A180FB68B3F1205F80F035
:100DE4009C8001F0C5F8FB6803F17843BB62BB6AE1
:100DF400DB0A7B63BB6AC3F30A035B087B867B8ED7
:100E0400C3F580633B86FA883B8E9A4201D8FB88FF
:100E14003B867B6B03F58033DB024FF480624149F0
:100E24001846FFF783FF0023FB850CE07A8EFB8DC9
:100E340013443C4A32F813304FF6FF72934207D101
:100E4400FB8D0133FB85FA8D3B8E9A42EED300E095
:100E540000BFFA8D3B8E9A4232D20023BB6101233C
:100E6400FB6101237B627B6B03F58033DB023B6216
:100E740007F1140207F118031146184601F060F94E
:100E84000023FB850DE0FB8D5B00BA681A44F98DE5
:100E94007B8E0B441188234A22F81310FB8D0133F7
:100EA400FB85FA8D3B8E9A42EDD37B6B03F5803341
:100EB400DB024FF480621B491846FFF759FF05E037
:100EC4003B8E1A46B968F868FFF752FFFA883B8EE2
:100ED4009A421ED07B6B01337B6300237B863B8E5F
:100EE4005B00BA681344BB603B8E5B001A46FB6828
:100EF4001344FB60FA883B8ED31AFB80FB88B3F55E
:100F0400806F03D94FF480633B8682E7FB883B867E
:100F14007FE700BF01F052F800E000BF3837BD465C
:100F240080BD00BFC403002080B582B000AF7860EC
:100F34003B1D01221946084802F00AFB00BF064B7C
:100F44001B681B6803F04003402BF8D17B681846EC
:100F54000837BD4680BD00BFE802002080B582B0DE
:100F640000AF78600B467B807B88B3F5886F28BF21
:100F74004FF488637B807B881A467968064803F0BF
:100F840092FC7B881A460449044802F0E1FA00BF47
:100F94000837BD4680BD00BFC40B0020E802002016
:100FA40080B584B000AF78607B681B68164A9342B2
:100FB40026D1164B1B681B6803F01003102B1FD19E
:100FC4000023FB60114B1B681B68FB600F4B1B6805
:100FD4005B68FB60FB680D4802F04FFB0C4B1B6821
:100FE4005B689BB2C3F588639AB20A4B1A800A4BBA
:100FF40001221A704FF488620849044802F018FB71
:1010040000BF1037BD4680BD00380140E802002013
:101014003003002046140020441400200410002053
:1010240080B586B000AF78607B685B6C03F0040326
:10103400002B16D000237B617B681B681B687B61D7
:101044007B681B685B687B617B697B68202283F813
:1010540042207B681B68DA687B681B6842F01002D8
:10106400DA607B685B6C03F00203002B16D000236C
:101074003B617B681B681B683B617B681B685B6822
:101084003B613B697B68202283F842207B681B68B4
:10109400DA687B681B6842F01002DA607B685B6C7C
:1010A40003F00803002B16D00023FB607B681B6849
:1010B4001B68FB607B681B685B68FB60FB687B6884
:1010C400202283F842207B681B68DA687B681B68EF
:1010D40042F01002DA607B681B68064A934205D12D
:1010E4004FF488620449054802F0A2FA00BF183799
:1010F400BD4680BD0038014004100020E8020020F5
:1011040080B586B002AF0346FB710023FB7307F181
:101114000F02F91D4FF0FF3300930123034801F040
:1011240063FFFB7B18461037BD4680BD900200204C
:1011340080B582B000AF0023FB8000224FF48051C1
:10114400134801F039FA9020FFF7DAFF0020FFF787
:10115400D7FF0020FFF7D4FF0020FFF7D1FFFF20C7
:10116400FFF7CEFF03461B02FB80FF20FFF7C8FFFB
:1011740003461A46FB881343FB8001224FF4805137
:10118400034801F019FAFB8818460837BD4680BDAC
:10119400000C014080B584B002AF0023FB71002332
:1011A400BB71BA1DF91D6FF07F43009301230648FC
:1011B40001F01AFF0346002B01D0FF23BB71BB795A
:1011C40018460837BD4680BD9002002080B586B021
:1011D40002AF0346FB7107F10F02F91D6FF07F4365
:1011E40000930123064801F0FFFE0346002B01D0C3
:1011F400012300E0002318461037BD4680BD00BF20
:101204009002002080B584B000AF00224FF48051DA
:10121400124801F0D1F99F20FFF7D8FFFFF7BAFF7A
:101224000346FB60FFF7B6FF0346BB60FFF7B2FF60
:1012340003467B6001224FF48051084801F0BCF959
:10124400FB681A04BB681B0213437A6813433B60B0
:101254003B6818461037BD4680BD00BF000C0140F6
:1012640080B500AF084B1B68074A43F010031360B6
:10127400032000F047F90F2000F008F8FFF7BEF94B
:101284000023184680BD00BF0020024080B582B014
:1012940000AF7860124B1A68124B1B7819464FF452
:1012A4007A73B3FBF1F3B2FBF3F3184600F05FF982
:1012B4000346002B01D001230EE07B680F2B0AD8D4
:1012C400002279684FF0FF3000F027F9064A7B6866
:1012D4001360002300E0012318460837BD4680BD93
:1012E40000000020080200200402002080B400AFA7
:1012F400054B1B781A46054B1B681344034A1360BD
:1013040000BFBD4680BC704708020020481400207E
:1013140080B400AF024B1B681846BD4680BC7047C2
:101324004814002080B584B000AF7860FFF7F0FF68
:10133400B8607B68FB60FB68B3F1FF3F05D00A4BE4
:101344001B781A46FB681344FB6000BFFFF7E0FFFD
:101354000246BB68D31AFA689A42F7D800BF00BFA6
:101364001037BD4680BD00BF0802002080B485B0A0
:1013740000AF78607B6803F00703FB600C4BDB680D
:10138400BB60BA684FF6FF031340BB60FB681A02E8
:10139400BB68134343F0BF6343F40033BB60044AA8
:1013A400BB68D36000BF1437BD4680BC704700BF24
:1013B40000ED00E080B400AF044BDB681B0A03F0CF
:1013C40007031846BD4680BC704700BF00ED00E02F
:1013D40080B483B000AF0346FB7197F90730002B4C
:1013E4000BDBFB7903F01F02064997F907305B0911
:1013F400012000FA02F241F8232000BF0C37BD4659
:1014040080BC704700E100E080B483B000AF0346C5
:101414003960FB7197F90730002B0ADB3B68DAB2BD
:101424000C4997F907301201D2B20B4483F8002318
:101434000AE03B68DAB20849FB7903F00F03043B86
:101444001201D2B20B441A7600BF0C37BD4680BCE1
:10145400704700BF00E100E000ED00E080B489B017
:1014640000AFF860B9607A60FB6803F00703FB61C2
:10147400FB69C3F10703042B28BF0423BB61FB6989
:101484000433062B02D9FB69033B00E000237B6194
:101494004FF0FF32BB6902FA03F3DA43BB681A4028
:1014A4007B699A404FF0FF317B6901FA03F3D9431A
:1014B4007B680B40134318462437BD4680BC7047F5
:1014C40080B582B000AF78607B68013BB3F1807F68
:1014D40001D301230FE00A4A7B68013B53600F21CB
:1014E4004FF0FF30FFF790FF054B00229A60044B4A
:1014F40007221A60002318460837BD4680BD00BF86
:1015040010E000E080B582B000AF78607868FFF743
:101514002DFF00BF0837BD4680BD80B586B000AF43
:101524000346B9607A60FB7300237B61FFF742FFD7
:1015340078617A68B9687869FFF790FF024697F98D
:101544000F3011461846FFF75FFF00BF1837BD463E
:1015540080BD80B582B000AF0346FB7197F90730B8
:101564001846FFF735FF00BF0837BD4680BD80B57C
:1015740082B000AF78607868FFF7A2FF0346184690
:101584000837BD4680BD000080B485B000AF7860E8
:101594000023FB607B68002B01D1012359E07B68A9
:1015A4001B681A462D4B9A420FD87B681B681A4653
:1015B4002B4B13442B4AA2FB03231B099A007B6881
:1015C4001A647B68284ADA630EE07B681B681A4653
:1015D400264B1344234AA2FB03231B099A007B686E
:1015E4001A647B68224ADA637B68022283F821202A
:1015F4007B681B681B68FB60FB6823F47F5323F044
:101604003003FB607B685A687B689B681A437B687D
:10161400DB681A437B681B691A437B685B691A435E
:101624007B689B691A437B68DB691343FA6813433D
:10163400FB607B681B68FA681A607B6800229A6307
:101644007B68012283F821207B68002283F8202014
:10165400002318461437BD4680BC70470704024077
:10166400F8FFFDBFCDCCCCCC00000240F8FBFDBFA1
:101674000004024080B586B000AFF860B9607A60BB
:101684003B600023FB75FB6893F82030012B01D1EC
:1016940002234BE0FB68012283F82020FB6893F8C7
:1016A4002130DBB2012B3AD1FB68022283F82120DE
:1016B400FB6800229A63FB681B681A68FB681B6856
:1016C40022F001021A603B687A68B968F86800F091
:1016D400B1FBFB68DB6A002B08D0FB681B681A6847
:1016E400FB681B6842F00E021A600FE0FB681B687F
:1016F4001A68FB681B6822F004021A60FB681B6806
:101704001A68FB681B6842F00A021A60FB681B68CF
:101714001A68FB681B6842F001021A6005E0FB6866
:10172400002283F820200223FB75FB7D184618371E
:10173400BD4680BD80B485B000AF78600023FB73E4
:101744007B6893F82130DBB2022B08D07B6804223B
:101754009A637B68002283F82020012320E07B68C1
:101764001B681A687B681B6822F00E021A607B688B
:101774001B681A687B681B6822F001021A607B6888
:101784001A6C7B68DB6B012101FA02F25A607B68F8
:10179400012283F821207B68002283F82020FB7B30
:1017A40018461437BD4680BC7047000080B584B02D
:1017B40000AF78600023FB737B6893F82130DBB2C1
:1017C400022B05D07B6804229A630123FB73D6E0C5
:1017D4007B681B681A687B681B6822F00E021A601B
:1017E4007B681B681A687B681B6822F001021A6018
:1017F4007B681B681A46644B9A4258D97B681B68FD
:10180400624A93424FD07B681B68614A934248D036
:101814007B681B685F4A934240D07B681B685E4AC2
:10182400934238D07B681B685C4A934230D07B6813
:101834001B685B4A934228D07B681B68524A9342D8
:1018440020D07B681B68574A934219D07B681B6879
:10185400554A934212D07B681B68544A93420AD07B
:101864007B681B68524A934202D14FF480531BE0B9
:101874004FF4803318E04FF4807315E0102313E025
:10188400012311E04FF080730EE04FF480130BE05E
:101894004FF4803308E04FF4805305E04FF4807335
:1018A40002E0102300E00123424A536057E07B68C2
:1018B4001B68364A93424FD07B681B68344A934274
:1018C40048D07B681B68334A934240D07B681B68CE
:1018D400314A934238D07B681B68304A934230D0F7
:1018E4007B681B682E4A934228D07B681B68264A73
:1018F400934220D07B681B682A4A934219D07B68A4
:101904001B68294A934212D07B681B68274A93427A
:101914000AD07B681B68264A934202D14FF4805355
:101924001BE04FF4803318E04FF4807315E010236C
:1019340013E0012311E04FF080730EE04FF48013A5
:101944000BE04FF4803308E04FF4805305E04FF48C
:10195400807302E0102300E00123174A53607B6880
:10196400012283F821207B68002283F820207B68F1
:101974005B6B002B03D07B685B6B78689847FB7BC1
:1019840018461037BD4680BD800002400800024062
:101994001C00024030000240440002405800024053
:1019A4006C000240080402401C040240300402405F
:1019B40044040240000402400000024080B584B0A8
:1019C40000AF78607B68DB6B1B68FB607B681B681F
:1019D4001B68BB607B681B6C04229A40FB68134045
:1019E400002B00F0F180BB6803F00403002B00F02F
:1019F400EB807B681B681B6803F02003002B07D176
:101A04007B681B681A687B681B6822F004021A60F2
:101A14007B681B681A465F4B9A4258D97B681B68DF
:101A24005D4A93424FD07B681B685C4A934248D01E
:101A34007B681B685A4A934240D07B681B68594AAA
:101A4400934238D07B681B68574A934230D07B68F6
:101A54001B68564A934228D07B681B684D4A9342C0
:101A640020D07B681B68524A934219D07B681B685C
:101A7400504A934212D07B681B684F4A93420AD063
:101A84007B681B684D4A934202D14FF480431BE0AC
:101A94004FF4802318E04FF4806315E0402313E0F3
:101AA400042311E04FF080630EE04FF480030BE059
:101AB4004FF4802308E04FF4804305E04FF4806343
:101AC40002E0402300E004233D4A536057E07B6872
:101AD4001B68314A93424FD07B681B682F4A93425C
:101AE40048D07B681B682E4A934240D07B681B68B1
:101AF4002C4A934238D07B681B682B4A934230D0DF
:101B04007B681B68294A934228D07B681B68214A5A
:101B1400934220D07B681B68254A934219D07B6886
:101B24001B68244A934212D07B681B68224A934262
:101B34000AD07B681B68214A934202D14FF4804348
:101B44001BE04FF4802318E04FF4806315E040233A
:101B540013E0042311E04FF080630EE04FF48003A0
:101B64000BE04FF4802308E04FF4804305E04FF48A
:101B7400806302E0402300E00423124A53607B6840
:101B8400DB6A002B00F036817B68DB6A7868984753
:101B940030E100BF80000240080002401C00024007
:101BA4003000024044000240580002406C000240F1
:101BB400080402401C040240300402404404024071
:101BC40000040240000002407B681B6C02229A4021
:101BD400FB681340002B00F0DD80BB6803F00203B8
:101BE400002B00F0D7807B681B681B6803F0200380
:101BF400002B0BD17B681B681A687B681B6822F07A
:101C04000A021A607B68012283F821207B681B6822
:101C14001A467B4B9A4258D97B681B68794A93428F
:101C24004FD07B681B68784A934248D07B681B6816
:101C3400764A934240D07B681B68754A934238D0F9
:101C44007B681B68734A934230D07B681B68724A76
:101C5400934228D07B681B68694A934220D07B68F2
:101C64001B686E4A934219D07B681B686C4A934286
:101C740012D07B681B686B4A93420AD07B681B684E
:101C8400694A934202D14FF400531BE04FF40033EE
:101C940018E04FF4007315E0202313E0022311E051
:101CA4004FF000730EE04FF400130BE04FF40033D9
:101CB40008E04FF4005305E04FF4007302E02023E2
:101CC40000E00223594A536057E07B681B684D4A81
:101CD40093424FD07B681B684B4A934248D07B6841
:101CE4001B684A4A934240D07B681B68484A934227
:101CF40038D07B681B68474A934230D07B681B68A6
:101D0400454A934228D07B681B683D4A934220D0C1
:101D14007B681B68414A934219D07B681B68404A20
:101D2400934212D07B681B683E4A93420AD07B6878
:101D34001B683D4A934202D14FF400531BE04FF419
:101D4400003318E04FF4007315E0202313E002235E
:101D540011E04FF000730EE04FF400130BE04FF46A
:101D6400003308E04FF4005305E04FF4007302E041
:101D7400202300E002232E4A53607B68002283F86C
:101D840020207B689B6A002B34D07B689B6A786830
:101D940098472FE07B681B6C08229A40FB6813402D
:101DA400002B28D0BB6803F00803002B23D07B68EA
:101DB4001B681A687B681B6822F00E021A607B6835
:101DC4001A6C7B68DB6B012101FA02F25A607B68B2
:101DD40001229A637B68012283F821207B68002218
:101DE40083F820207B681B6B002B04D07B681B6B63
:101DF4007868984700BF00BF1037BD4680BD00BF5C
:101E040080000240080002401C00024030000240F2
:101E140044000240580002406C00024008040240A2
:101E24001C04024030040240440402400004024006
:101E34000000024080B485B000AFF860B9607A60F9
:101E44003B60FB681A6CFB68DB6B012101FA02F250
:101E54005A60FB681B683A685A60FB685B68102B21
:101E640008D1FB681B687A689A60FB681B68BA68CB
:101E7400DA6007E0FB681B68BA689A60FB681B6855
:101E84007A68DA6000BF1437BD4680BC7047000032
:101E9400F0B587B000AFF860B960C7E9002301234B
:101EA400FB750023BB7500237B752F4B1B7E012B19
:101EB40001D1022354E02C4B01221A764CF250300B
:101EC40000F0A8F80346FB75FB7D002B44D1FB68AA
:101ED400012B02D101237B7507E0FB68022B02D1A1
:101EE40002237B7501E004237B750023BB752DE081
:101EF400BB7D5A00BB6802EB030CBB7D1901D7E91B
:101F04000023C1F12006A1F1200022FA01F403FA12
:101F140006F6344323FA00F0044323FA01F5A3B28E
:101F24001946604600F05AF84CF2503000F072F84E
:101F34000346FB750D4B1B690C4A23F00103136127
:101F4400FB7D002B07D1BB7D0133BB75BA7D7B7D47
:101F54009A42CDD300E000BF034B00221A76FB7DEA
:101F640018461C37BD46F0BD501400200020024026
:101F740080B483B000AF0023FB710D4B1B6903F0E9
:101F84008003002B0DD00A4B0A4A5A60084B0A4AB8
:101F94005A60074B1B6903F08003002B01D0012317
:101FA400FB71FB7918460C37BD4680BC704700BFF7
:101FB4000020024023016745AB89EFCD80B400AF18
:101FC400054B1B69044A43F0800313610023184640
:101FD400BD4680BC704700BF0020024080B483B07F
:101FE40000AF78600B467B80084B0022DA61084B17
:101FF4001B69074A43F0010313617B687A881A80DE
:1020040000BF0C37BD4680BC704700BF5014002091
:102014000020024080B584B000AF7860FFF778F903
:10202400F86010E07B68B3F1FF3F0CD07B68002BB5
:1020340007D0FFF76DF90246FB68D31A7A689A4213
:1020440001D2032325E0154BDB6803F00103002BC9
:10205400E8D1124BDB6803F02003002B02D00F4BB6
:102064002022DA600D4BDB6803F01003002B0BD148
:102074000A4BDB6903F00103002B05D1074BDB6836
:1020840003F00403002B03D000F00AF8012300E05E
:10209400002318461037BD4680BD00BF0020024013
:1020A40080B483B000AF00237B60234BDB6803F074
:1020B4001003002B09D0214BDB6943F002031F4AB4
:1020C400D3617B6843F010037B601B4BDB6803F038
:1020D4000403002B09D0194BDB6943F00103174AB1
:1020E400D3617B6843F004037B60134BDB6903F02B
:1020F4000103002B0BD0114BDB6943F004030F4A9F
:10210400D3610D4BDB690C4A23F00103D3617B6877
:1021140040F20112934206D1074BDB69064A23F0D1
:102124000103D36102E0044A7B68D36000BF0C372B
:10213400BD4680BC704700BF002002405014002000
:1021440080B584B000AF786039600123FB7300234D
:10215400BB602F4B1B7E012B01D1022353E02C4B80
:1021640001221A767B681B68022B16D14CF2503080
:10217400FFF750FF0346002B41D1012000F04CF83B
:102184004CF25030FFF746FF0346FB73214B1B69AB
:10219400204A23F00403136131E04CF25030FFF77E
:1021A40039FF0346002B2AD13B684FF0FF321A60F7
:1021B4007B689B68BB6019E0B86800F049F84CF292
:1021C4005030FFF727FF0346FB73124B1B69114A7C
:1021D40023F002031361FB7B002B03D03B68BA6836
:1021E4001A600CE0BB6803F50063BB607B68DB68C6
:1021F400DA027B689B681344BA689A42DCD3044BC6
:1022040000221A76FB7B18461037BD4680BD00BFFE
:10221400501400200020024080B483B000AF7860E6
:10222400094B0022DA61094B1B69084A43F0040395
:102234001361064B1B69054A43F04003136100BF59
:102244000C37BD4680BC704750140020002002406B
:1022540080B483B000AF78600B4B0022DA610B4B83
:102264001B690A4A43F002031361084A7B685361FD
:10227400064B1B69054A43F04003136100BF0C374A
:10228400BD4680BC704700BF5014002000200240AF
:1022940080B48BB000AF7860396000237B62002388
:1022A4003B6279E101227B6A02FA03F3FB613B683A
:1022B4001B68FA691340BB61BA69FB699A4240F032
:1022C40068813B685B68964A93425ED0944A934225
:1022D40075D8944A934258D0924A93426FD8924AFE
:1022E400934252D0904A934269D8904A93424CD038
:1022F4008E4A934263D88E4A934246D08C4A934284
:102304005DD8122B2AD8122B59D801A252F823F0E7
:102314008F230008692300087B230008BD230008DD
:10232400C3230008C3230008C3230008C3230008F1
:10233400C3230008C3230008C3230008C3230008E1
:10234400C3230008C3230008C3230008C3230008D1
:10235400C32300087123000885230008754A9342AB
:1023640013D02CE03B68DB683B6229E03B68DB6808
:1023740004333B6224E03B68DB6808333B621FE0C4
:102384003B68DB680C333B621AE03B689B68002BBC
:1023940002D104233B6213E03B689B68012B05D107
:1023A40008233B627B68FA691A6109E008233B62EF
:1023B4007B68FA695A6103E000233B6200E000BFD6
:1023C400BB69FF2B01D87B6801E07B6804337B6128
:1023D400BB69FF2B02D87B6A9B0002E07B6A083B47
:1023E4009B003B617B691A680F213B6901FA03F387
:1023F400DB431A40396A3B6901FA03F31A437B69E8
:102404001A603B685B6803F08053002B00F0C180C6
:10241400494B9B69484A43F001039361464B9B69CE
:1024240003F00103BB60BB68444A7B6A9B08023328
:1024340052F82330FB607B6A03F003039B000F22F6
:1024440002FA03F3DB43FA681340FB607B683C4AFF
:1024540093421FD07B683B4A934219D07B683A4A27
:10246400934213D07B68394A93420DD07B68384A33
:10247400934207D07B68374A934201D105230AE08F
:10248400062308E0042306E0032304E0022302E019
:10249400012300E000237A6A02F0030292009340D1
:1024A400FA681343FB6025497B6A9B080233FA6888
:1024B40041F823203B685B6803F48013002B06D0AB
:1024C400254B9A682449BB6913438B6006E0224B71
:1024D4009A68BB69DB43204913408B603B685B68A7
:1024E40003F40013002B06D01B4BDA681A49BB69AE
:1024F4001343CB6006E0184BDA68BB69DB4316492B
:102504001340CB603B685B6803F40033002B25D099
:10251400114B5A681049BB6913434B6025E000BF57
:1025240000003210000031100000221000002110C1
:1025340000001210000011100010024000000140C1
:1025440000080140000C014000100140001401404B
:1025540000180140001C014000040140154B5A685A
:10256400BB69DB43134913404B603B685B6803F46E
:102574008033002B06D00F4B1A680E49BB691343F6
:102584000B6006E00B4B1A68BB69DB430949134037
:102594000B607B6A01337B623B681A687B6A22FAB0
:1025A40003F3002B7FF47EAE00BF00BF2C37BD4683
:1025B40080BC70470004014080B483B000AF7860F1
:1025C4000B467B8013467B707B78002B03D07A8884
:1025D4007B681A6103E07B881A047B681A6100BF78
:1025E4000C37BD4680BC704780B485B000AF7860BE
:1025F4000B467B807B68DB68FB607A88FB68134052
:102604001A04FB68D9437B880B401A437B681A6120
:1026140000BF1437BD4680BC704780B584B000AF9E
:1026240078607B68002B01D1012336E07B681B684E
:102634004CF6CC421A607B681B6845F255521A600E
:102644007B681B687A6852685A607B681B687A6882
:1026540092689A60FEF75CFEF86011E0FEF758FE9F
:102664000246FB68D31A41F23C32934208D97B6894
:102674001B68DB6803F00303002B01D003230CE089
:102684007B681B68DB6803F00303002BE6D17B68DF
:102694001B684AF6AA221A60002318461037BD4662
:1026A40080BD80B483B000AF78607B681B684AF655
:1026B400AA221A60002318460C37BD4680BC704716
:1026C40080B586B000AF78607B68002B01D1012310
:1026D40072E27B681B6803F00103002B00F0878023
:1026E400924B5B6803F00C03042B0CD08F4B5B689C
:1026F40003F00C03082B12D18C4B5B6803F480337A
:10270400B3F5803F0BD1894B1B6803F40033002BD6
:102714006CD07B685B68002B68D101234CE27B683A
:102724005B68B3F5803F06D1804B1B687F4A43F456
:10273400803313602EE07B685B68002B0CD17B4BED
:102744001B687A4A23F480331360784B1B68774AFA
:1027540023F4802313601DE07B685B68B3F5A02F2E
:102764000CD1724B1B68714A43F4802313606F4B86
:102774001B686E4A43F4803313600BE06B4B1B6899
:102784006A4A23F480331360684B1B68674A23F456
:10279400802313607B685B68002B13D0FEF7B8FDC1
:1027A400386108E0FEF7B4FD02463B69D31A642B96
:1027B40001D9032300E25D4B1B6803F40033002BB3
:1027C400F0D014E0FEF7A4FD386108E0FEF7A0FDA8
:1027D40002463B69D31A642B01D90323ECE1534B22
:1027E4001B6803F40033002BF0D100E000BF7B68CA
:1027F4001B6803F00203002B63D04C4B5B6803F0AF
:102804000C03002B0BD0494B5B6803F00C03082B23
:102814001CD1464B5B6803F48033002B16D1434B29
:102824001B6803F00203002B05D07B681B69012B96
:1028340001D00123C0E13D4B1B6823F0F8027B6803
:102844005B69DB00394913430B603AE07B681B6921
:10285400002B20D0364B01221A60FEF759FD386157
:1028640008E0FEF755FD02463B69D31A022B01D955
:102874000323A1E12D4B1B6803F00203002BF0D0CE
:102884002A4B1B6823F0F8027B685B69DB0027494D
:1028940013430B6015E0264B00221A60FEF738FD47
:1028A400386108E0FEF734FD02463B69D31A022B77
:1028B40001D9032380E11D4B1B6803F00203002BA5
:1028C400F0D17B681B6803F00803002B3AD07B68C7
:1028D4009B69002B19D0174B01221A60FEF718FDD3
:1028E400386108E0FEF714FD02463B69D31A022B57
:1028F40001D9032360E10D4B5B6A03F00203002B53
:10290400F0D0012000F0CEFA1CE00A4B00221A603D
:10291400FEF7FEFC38610FE0FEF7FAFC02463B6965
:10292400D31A022B08D9032346E100BF001002404A
:102934000000424280044242924B5B6A03F002036D
:10294400002BE9D17B681B6803F00403002B00F023
:10295400A6800023FB758B4BDB6903F08053002BAF
:102964000DD1884BDB69874A43F08053D361854B93
:10297400DB6903F08053BB60BB680123FB75824BAA
:102984001B6803F48073002B18D17F4B1B687E4AAD
:1029940043F480731360FEF7BBFC386108E0FEF774
:1029A400B7FC02463B69D31A642B01D9032303E124
:1029B400754B1B6803F48073002BF0D07B68DB68D5
:1029C400012B06D16F4B1B6A6E4A43F0010313625D
:1029D4002DE07B68DB68002B0CD16A4B1B6A694ACB
:1029E40023F001031362674B1B6A664A23F0040356
:1029F40013621CE07B68DB68052B0CD1614B1B6AFE
:102A0400604A43F0040313625E4B1B6A5D4A43F061
:102A1400010313620BE05B4B1B6A5A4A23F0010368
:102A24001362584B1B6A574A23F0040313627B68F2
:102A3400DB68002B15D0FEF76BFC38610AE0FEF76B
:102A440067FC02463B69D31A41F28832934201D9AA
:102A54000323B1E04B4B1B6A03F00203002BEED0BF
:102A640014E0FEF755FC38610AE0FEF751FC02461B
:102A74003B69D31A41F28832934201D903239BE084
:102A8400404B1B6A03F00203002BEED1FB7D012BAC
:102A940005D13C4BDB693B4A23F08053D3617B680F
:102AA400DB69002B00F08780364B5B6803F00C0376
:102AB400082B61D07B68DB69022B46D1334B0022A3
:102AC4001A60FEF725FC386108E0FEF721FC024697
:102AD4003B69D31A022B01D903236DE0294B1B68F0
:102AE40003F00073002BF0D17B681B6AB3F5803FC1
:102AF40008D1244B5B6823F400327B689B6821492E
:102B040013434B601F4B5B6823F474127B68196A90
:102B14007B685B6A0B431B4913434B601B4B0122CD
:102B24001A60FEF7F5FB386108E0FEF7F1FB024698
:102B34003B69D31A022B01D903233DE0114B1B68D7
:102B440003F00073002BF0D035E0104B00221A6024
:102B5400FEF7DEFB386108E0FEF7DAFB02463B696C
:102B6400D31A022B01D9032326E0064B1B6803F07A
:102B74000073002BF0D11EE07B68DB69012B07D1C9
:102B8400012319E00010024000700040600042423E
:102B94000B4B5B68FB60FB6803F480327B681B6A49
:102BA4009A4206D1FB6803F470127B685B6A9A420E
:102BB40001D0012300E0002318461837BD4680BD2C
:102BC4000010024080B584B000AF786039607B6843
:102BD400002B01D10123D0E06A4B1B6803F00703EB
:102BE4003A689A4210D9674B1B6823F0070265497B
:102BF4003B6813430B60634B1B6803F007033A689D
:102C04009A4201D00123B8E07B681B6803F00203F9
:102C1400002B20D07B681B6803F00403002B05D035
:102C2400594B5B68584A43F4E06353607B681B6804
:102C340003F00803002B05D0534B5B68524A43F45E
:102C440060535360504B5B6823F0F0027B689B68D1
:102C54004D4913434B607B681B6803F00103002B51
:102C640040D07B685B68012B07D1474B1B6803F49A
:102C74000033002B15D101237FE07B685B68022BB6
:102C840007D1414B1B6803F00073002B09D10123CA
:102C940073E03D4B1B6803F00203002B01D10123B9
:102CA4006BE0394B5B6823F003027B685B68364951
:102CB40013434B60FEF72CFBF8600AE0FEF728FB99
:102CC4000246FB68D31A41F28832934201D90323A6
:102CD40053E02D4B5B6803F00C027B685B689B0040
:102CE4009A42EBD1274B1B6803F007033A689A42D8
:102CF40010D2244B1B6823F0070222493B6813437C
:102D04000B60204B1B6803F007033A689A4201D01A
:102D1400012332E07B681B6803F00403002B08D016
:102D2400194B5B6823F4E0627B68DB681649134344
:102D34004B607B681B6803F00803002B09D0124B1F
:102D44005B6823F460527B681B69DB000E49134304
:102D54004B6000F021F802460B4B5B681B0903F043
:102D64000F030A49CB5C22FA03F3094A1360094BA7
:102D74001B681846FEF78AFA002318461037BD462A
:102D840080BD00BF00200240001002403C540008F7
:102D9400000000200402002080B487B000AF0023AC
:102DA400FB600023BB6000237B6100237B60002366
:102DB4003B611E4B5B68FB60FB6803F00C03042B58
:102DC40002D0082B03D027E0194B3B6127E0FB68B6
:102DD4009B0C03F00F03174AD35C7B60FB6803F47E
:102DE4008033002B10D0114B5B685B0C03F00103A4
:102DF400114AD35CBB607B680D4A03FB02F2BB68DB
:102E0400B2FBF3F37B6104E07B680C4A02FB03F33F
:102E14007B617B693B6102E0054B3B6100BF3B6921
:102E240018461C37BD4680BC704700BF00100240E6
:102E340000127A00545400086454000800093D004C
:102E440080B400AF024B1B681846BD4680BC704777
:102E54000000002080B500AFFFF7F2FF0246054BEB
:102E64005B681B0A03F007030349CB5C22FA03F3F4
:102E7400184680BD001002404C54000880B500AFD5
:102E8400FFF7DEFF0246054B5B68DB0A03F007032E
:102E94000349CB5C22FA03F3184680BD00100240BC
:102EA4004C54000880B485B000AF78600A4B1B68AE
:102EB4000A4AA2FB03235B0A7A6802FB03F3FB6062
:102EC40000BFFB685A1EFA60002BF9D100BF00BF97
:102ED4001437BD4680BC704700000020D34D6210FB
:102EE40080B582B000AF78607B68002B01D10123EC
:102EF40076E07B685B6A002B08D17B685B68B3F57E
:102F0400827F09D07B680022DA6105E07B680022B9
:102F14001A617B6800225A617B6800229A627B688E
:102F240093F85130DBB2002B06D17B68002283F882
:102F340050207868FDF794FB7B68022283F85120C7
:102F44007B681B681A687B681B6822F040021A6061
:102F54007B685B6803F482727B689B6803F40443B8
:102F64001A437B68DB6803F400631A437B681B69BC
:102F740003F002031A437B685B6903F001031A43FD
:102F84007B689B6903F400731A437B68DB6903F075
:102F940038031A437B681B6A03F0800342EA030187
:102FA4007B689B6A03F400527B681B680A431A60BF
:102FB4007B689B691A0C7B681B6802F004025A60E8
:102FC4007B681B68DA697B681B6822F40062DA613B
:102FD4007B6800225A657B68012283F85120002314
:102FE40018460837BD4680BD80B58AB000AFF8608A
:102FF400B9607A607B8001237B62FEF789F93862CD
:10300400FB6893F85130FB77FB685B68BB617B8896
:10301400FB82FB7F012B0CD0BB69B3F5827F06D109
:10302400FB689B68002B02D1FB7F042B01D0022399
:103034007FE1BB68002B05D07B68002B02D07B8826
:10304400002B01D1012374E1FB6893F85030012B6C
:1030540001D102236DE1FB68012283F85020FB6853
:1030640093F85130DBB2042B03D0FB68052283F8BC
:103074005120FB6800225A65FB687A689A63FB68F2
:103084007A88DA87FB687A889A87FB68BA681A6351
:10309400FB687A88DA86FB687A889A86FB6800225D
:1030A4001A64FB6800225A64FB681B681B6803F0FF
:1030B4004003402B07D0FB681B681A68FB681B6839
:1030C40042F040021A60FB68DB68B3F5006F7ED102
:1030D400FB685B68002B02D0FB8A012B6CD1FB6878
:1030E4001B6B1A88FB681B68DA60FB681B6B9A1CF5
:1030F400FB681A63FB68DB8E9BB2013B9AB2FB68E8
:10310400DA8659E0FB681B689B6803F00203022B14
:103114001BD1FB68DB8E9BB2002B16D07B6A012B84
:1031240013D1FB681B6B1A88FB681B68DA60FB68A9
:103134001B6B9A1CFB681A63FB68DB8E9BB2013B1A
:103144009AB2FB68DA8600237B62FB681B689B6883
:1031540003F00103012B19D1FB68DB8F9BB2002B19
:1031640014D0FB681B68DA68FB689B6B92B21A8008
:10317400FB689B6B9A1CFB689A63FB68DB8F9BB2B2
:10318400013B9AB2FB68DA8701237B62FEF7C0F841
:1031940002463B6AD31A3A6B9A420DD83B6BB3F1A1
:1031A400FF3F09D0FB68012283F85120FB6800220D
:1031B40083F850200323BCE0FB68DB8E9BB2002B1A
:1031C400A0D1FB68DB8F9BB2002B9BD182E0FB6814
:1031D4005B68002B02D0FB8A012B71D1FB681A6B50
:1031E400FB681B680C3312781A70FB681B6B5A1C43
:1031F400FB681A63FB68DB8E9BB2013B9AB2FB68E7
:10320400DA865DE0FB681B689B6803F00203022B0F
:103214001CD1FB68DB8E9BB2002B17D07B6A012B81
:1032240014D1FB681A6BFB681B680C3312781A7094
:10323400FB681B6B5A1CFB681A63FB68DB8E9BB232
:10324400013B9AB2FB68DA8600237B62FB681B6849
:103254009B6803F00103012B19D1FB68DB8F9BB240
:10326400002B14D0FB681B68DA68FB689B6BD2B236
:103274001A70FB689B6B5A1CFB689A63FB68DB8FB4
:103284009BB2013B9AB2FB68DA8701237B62FEF7AB
:103294003FF802463B6AD31A3A6B9A4203D83B6B17
:1032A400B3F1FF3F02D13B6B002B09D1FB68012234
:1032B40083F85120FB68002283F85020032338E070
:1032C400FB68DB8E9BB2002B9CD1FB68DB8F9BB22F
:1032D400002B97D13A6A396BF86800F0B7F80346C7
:1032E400002B08D0FB6820225A65FB68002283F873
:1032F400502001231DE0FB689B68002B0AD10023AA
:103304003B61FB681B68DB683B61FB681B689B686F
:103314003B613B69FB68012283F85120FB68002272
:1033240083F85020FB685B6D002B01D0012300E083
:10333400002318462837BD4680BD000080B588B0FC
:1033440000AFF860B9603B601346FB71FDF7E0FF26
:103354000246BB6A9B1A3A681344FB61FDF7D8FF27
:10336400B861394B1B685B011B0DFA6902FB03F35F
:103374007B6154E03B68B3F1FF3F50D0FDF7C8FFD9
:103384000246BB69D31AFA699A4202D9FB69002B37
:103394003DD1FB681B685A68FB681B6822F0E00299
:1033A4005A60FB685B68B3F5827F11D1FB689B6848
:1033B400B3F5004F04D0FB689B68B3F5806F07D169
:1033C400FB681B681A68FB681B6822F040021A60DD
:1033D400FB689B6AB3F5005F0FD1FB681B681A6832
:1033E400FB681B6822F400521A60FB681B681A68A9
:1033F400FB681B6842F400521A60FB68012283F8E0
:103404005120FB68002283F85020032317E07B69D6
:10341400002B01D10023FB617B69013B7B61FB68CD
:103424001B689A68BB681340BA689A420CBF0123B0
:103434000023DBB21A46FB799A429BD1002318463B
:103444002037BD4680BD00BF0000002080B586B097
:1034540002AFF860B9607A607B680093BB680122B0
:103464000221F868FFF76AFF0346002B07D0FB68C8
:103474005B6D43F02002FB685A65032313E07B680D
:103484000093BB6800228021F868FFF757FF0346CA
:10349400002B07D0FB685B6D43F02002FB685A6584
:1034A400032300E0002318461037BD4680BD80B5D5
:1034B40082B000AF78607B68002B01D1012342E029
:1034C4007B6893F84130DBB2002B06D17B68002285
:1034D40083F840207868FDF70FF97B68242283F88D
:1034E40041207B681B68DA687B681B6822F4005201
:1034F400DA60786800F0B6FF7B681B681A697B683D
:103504001B6822F490421A617B681B685A697B68C5
:103514001B6822F02A025A617B681B68DA687B68A0
:103524001B6842F40052DA607B6800225A647B68AC
:10353400202283F841207B68202283F842207B6884
:1035440000225A63002318460837BD4680BD000098
:1035540080B58CB000AFF860B9601346FB80FB689F
:1035640093F84130DBB2202B56D1BB68002B02D03C
:10357400FB88002B01D101234FE0BA68FB681A6273
:10358400FB68FA889A84FB68FA88DA84FB6800226C
:103594005A64FB68212283F84120FB689B6B214A13
:1035A4009A62FB689B6B204ADA62FB689B6B1F4A3A
:1035B4001A63FB689B6B00225A6307F10803FB62E2
:1035C400FB68986BFB6A1968FB681B6804331A462E
:1035D400FB88FEF74FF8FB681B686FF040021A6027
:1035E400FB681B681433BB61BB6953E8003F7B6114
:1035F4007B6943F08003BB62FB681B681433BA6ABF
:103604007A623B62396A7A6A41E80023FB61FB69AA
:10361400002BE5D1002300E0022318463037BD46D5
:1036240080BD00BFFF3C0008993D00081D3F000815
:1036340080B584B000AFF860B9601346FB80FB68C6
:1036440093F84230DBB2202B12D1BB68002B02D09E
:10365400FB88002B01D101230BE0FB6800221A63D5
:10366400FB881A46B968F86800F0A0FC034600E03D
:10367400022318461037BD4680BD80B590B000AF18
:1036840078600023FB637B681B685B6903F080033D
:10369400002B14BF01230023DBB2FB637B6893F888
:1036A4004130DBB2212B28D1FB6B002B25D07B686A
:1036B4001B6814337B627B6A53E8003F3B623B6ABE
:1036C40023F08003BB637B681B681433BA6B3A63D3
:1036D400FB62F96A3A6B41E80023BB62BB6A002BC8
:1036E400E5D17B689B6B002B04D07B689B6B1846F1
:1036F400FEF720F8786800F0F3FC7B681B685B69D0
:1037040003F04003002B14BF01230023DBB2FB634F
:103714007B6893F84230DBB2222B28D1FB6B002B61
:1037240025D07B681B6814333B613B6953E8003F39
:10373400FB60FB6823F040037B637B681B681433E6
:103744007A6BFA61BB61B969FA6941E800237B616C
:103754007B69002BE5D17B68DB6B002B04D07B6895
:10376400DB6B1846FDF7E6FF786800F0E0FC002309
:1037740018464037BD4680BD80B5BAB000AF78600A
:103784007B681B681B68C7F8E4307B681B68DB68D0
:10379400C7F8E0307B681B685B69C7F8DC3000233E
:1037A400C7F8D8300023C7F8D430D7F8E43003F092
:1037B4000F03C7F8D830D7F8D830002B0FD1D7F87B
:1037C400E43003F02003002B09D0D7F8E03003F0F5
:1037D4002003002B03D0786800F086FD5BE2D7F865
:1037E400D830002B00F0DE80D7F8DC3003F0010382
:1037F400002B06D1D7F8E03003F49073002B00F0CF
:10380400D180D7F8E43003F00103002B0BD0D7F8B4
:10381400E03003F48073002B05D07B685B6C43F0CD
:1038240001027B685A64D7F8E43003F00403002BE8
:103834000BD0D7F8DC3003F00103002B05D07B68F4
:103844005B6C43F002027B685A64D7F8E43003F0FF
:103854000203002B0BD0D7F8DC3003F00103002B5C
:1038640005D07B685B6C43F004027B685A64D7F82C
:10387400E43003F00803002B11D0D7F8E03003F054
:103884002003002B05D1D7F8DC3003F00103002B13
:1038940005D07B685B6C43F008027B685A647B68E4
:1038A4005B6C002B00F0F281D7F8E43003F02003C6
:1038B400002B08D0D7F8E03003F02003002B02D00F
:1038C400786800F011FD7B681B685B6903F04003B6
:1038D400002B14BF01230023DBB2C7F8D4307B686C
:1038E4005B6C03F00803002B03D1D7F8D430002B12
:1038F4004FD0786800F01BFC7B681B685B6903F0A1
:103904004003002B41D07B681B681433C7F89C30FC
:10391400D7F89C3053E8003FC7F89830D7F8983070
:1039240023F04003C7F8D0307B681B681433D7F802
:10393400D020C7F8A820C7F8A430D7F8A410D7F827
:10394400A82041E80023C7F8A030D7F8A030002B06
:10395400D9D17B68DB6B002B13D07B68DB6B7E4A91
:103964005A637B68DB6B1846FDF720FF0346002B88
:1039740016D07B68DB6B5B6B7A68D26B104698471A
:103984000EE07868FDF74CFB0AE07868FDF748FB29
:1039940006E07868FDF744FB7B6800225A6475E111
:1039A40000BF73E17B681B6B012B40F04F81D7F89C
:1039B400E43003F01003002B00F04881D7F8E03026
:1039C40003F01003002B00F041810023BB607B68EF
:1039D4001B681B68BB607B681B685B68BB60BB685B
:1039E4007B681B685B6903F04003002B00F0B68022
:1039F4007B68DB6B1B685B68A7F8BE30B7F8BE302A
:103A0400002B00F045817B689B8DB7F8BE209A425D
:103A140080F03E817B68B7F8BE20DA857B68DB6B7B
:103A24009B69202B00F088807B681B680C33C7F8E7
:103A34008830D7F8883053E8003FC7F88430D7F887
:103A4400843023F48073C7F8B8307B681B680C3368
:103A5400D7F8B820C7F89420C7F89030D7F890105A
:103A6400D7F8942041E80023C7F88C30D7F88C307D
:103A7400002BD9D17B681B6814337B677B6F53E8B9
:103A8400003F3B673B6F23F00103C7F8B4307B680A
:103A94001B681433D7F8B420C7F88020FB67F96F8C
:103AA400D7F8802041E80023BB67BB6F002BE1D12E
:103AB4007B681B6814333B663B6E53E8003FFB6531
:103AC400FB6D23F04003C7F8B0307B681B681433E8
:103AD400D7F8B020FA66BB66B96EFA6E41E80023E7
:103AE4007B667B6E002BE3D17B68202283F8422027
:103AF4007B6800221A637B681B680C33FB64FB6CD5
:103B040053E8003FBB64BB6C23F01003C7F8AC3030
:103B14007B681B680C33D7F8AC20BA657B65796D7C
:103B2400BA6D41E800233B653B6D002BE3D17B6814
:103B3400DB6B1846FDF7FEFD7B6802225A637B6847
:103B44009A8D7B68DB8D9BB2D31A9BB21946786839
:103B540000F0C8F89CE000BFF74100087B689A8D2C
:103B64007B68DB8D9BB2D31AA7F8CE307B68DB8DE4
:103B74009BB2002B00F08E80B7F8CE30002B00F003
:103B840089807B681B680C33BB63BB6B53E8003FC5
:103B94007B637B6B23F49073C7F8C8307B681B6826
:103BA4000C33D7F8C8207A643B64396C7A6C41E8EA
:103BB4000023FB63FB6B002BE3D17B681B6814338E
:103BC4007B627B6A53E8003F3B623B6A23F001035C
:103BD400C7F8C4307B681B681433D7F8C4203A6331
:103BE400FB62F96A3A6B41E80023BB62BB6A002BB3
:103BF400E3D17B68202283F842207B6800221A6389
:103C04007B681B680C333B613B6953E8003FFB60F6
:103C1400FB6823F01003C7F8C0307B681B680C33C3
:103C2400D7F8C020FA61BB61B969FA6941E8002399
:103C34007B617B69002BE3D17B6802225A63B7F86E
:103C4400CE301946786800F04DF823E0D7F8E43018
:103C540003F08003002B09D0D7F8E03003F0800391
:103C6400002B03D0786800F0D8FA14E0D7F8E430D9
:103C740003F04003002B0ED0D7F8E03003F04003EC
:103C8400002B08D0786800F017FB04E000BF02E0C6
:103C940000BF00E000BFE837BD4680BD80B483B0FC
:103CA40000AF786000BF0C37BD4680BC704780B45D
:103CB40083B000AF786000BF0C37BD4680BC70474E
:103CC40080B483B000AF786000BF0C37BD4680BCC1
:103CD400704780B483B000AF786000BF0C37BD4636
:103CE40080BC704780B483B000AF78600B467B80A3
:103CF40000BF0C37BD4680BC704780B590B000AFA4
:103D040078607B685B6AFB637B681B681B6803F0F5
:103D14002003002B37D1FB6B0022DA84FB6B1B687A
:103D240014337B627B6A53E8003F3B623B6A23F0B7
:103D34008003BB63FB6B1B681433BA6B3A63FB628F
:103D4400F96A3A6B41E80023BB62BB6A002BE5D1F8
:103D5400FB6B1B680C333B613B6953E8003FFB6022
:103D6400FB6843F040037B63FB6B1B680C337A6B8B
:103D7400FA61BB61B969FA6941E800237B617B6937
:103D8400002BE5D102E0F86BFFF788FF00BF403756
:103D9400BD4680BD80B584B000AF78607B685B6A47
:103DA400FB60F868FFF783FF00BF1037BD4680BD96
:103DB40080B59CB000AF78607B685B6AFB667B680B
:103DC4001B681B6803F02003002B72D1FB6E0022DA
:103DD400DA85FB6E1B680C33FB64FB6C53E8003F15
:103DE400BB64BB6C23F48073BB66FB6E1B680C3333
:103DF400BA6EBA657B65796DBA6D41E800233B659F
:103E04003B6D002BE5D1FB6E1B681433BB63BB6BAE
:103E140053E8003F7B637B6B23F001037B66FB6EFF
:103E24001B6814337A6E7A643B64396C7A6C41E8AB
:103E34000023FB63FB6B002BE5D1FB6E1B68143383
:103E44007B627B6A53E8003F3B623B6A23F040039A
:103E54003B66FB6E1B6814333A6E3A63FB62F96A85
:103E64003A6B41E80023BB62BB6A002BE5D1FB6ED1
:103E7400202283F84220FB6E1B6B012B19D1FB6EB1
:103E84001B680C333B613B6953E8003FFB60FB68F4
:103E940023F01003FB65FB6E1B680C33FA6DFA61AB
:103EA400BB61B969FA6941E800237B617B69002B36
:103EB400E5D1FB6E00225A63FB6E1B6B012B06D10E
:103EC400FB6E9B8D1946F86EFFF70CFF02E0F86E4F
:103ED400FFF7F6FE00BF7037BD4680BD80B584B0E5
:103EE40000AF78607B685B6AFB60FB6801225A6301
:103EF400FB681B6B012B08D1FB689B8D5B089BB295
:103F04001946F868FFF7EEFE02E0F868FFF7E1FEF5
:103F140000BF1037BD4680BD80B584B000AF786067
:103F24000023FB607B685B6ABB60BB681B685B69E2
:103F340003F08003002B14BF01230023DBB2FB60DA
:103F4400BB6893F84130DBB2212B08D1FB68002B0E
:103F540005D0BB680022DA84B86800F0C1F8BB68F9
:103F64001B685B6903F04003002B14BF012300238B
:103F7400DBB2FB60BB6893F84230DBB2222B08D182
:103F8400FB68002B05D0BB680022DA85B86800F016
:103F9400CEF8BB685B6C43F01002BB685A64B86827
:103FA400FDF73EF800BF1037BD4680BD80B598B020
:103FB40000AFF860B9601346FB80BA68FB689A6288
:103FC400FB68FA889A85FB6800225A64FB682222FF
:103FD40083F84220FB68DB6B3E4A9A62FB68DB6B2A
:103FE4003D4ADA62FB68DB6B3C4A1A63FB68DB6BB5
:103FF40000225A6307F10803FB65FB68D86BFB6872
:104004001B6804331946FB6D1A68FB88FDF732FB05
:1040140000233B61FB681B681B683B61FB681B68F2
:104024005B683B613B69FB681B69002B19D0FB682B
:104034001B680C333B643B6C53E8003FFB63FB6B36
:1040440043F48073BB65FB681B680C33BA6DFA6478
:10405400BB64B96CFA6C41E800237B647B6C002B75
:10406400E5D1FB681B681433FB62FB6A53E8003F2D
:10407400BB62BB6A43F001037B65FB681B681433B6
:104084007A6DBA637B63796BBA6B41E800233B6357
:104094003B6B002BE5D1FB681B681433BB61BB6928
:1040A40053E8003F7B617B6943F040033B65FB6859
:1040B4001B6814333A6D7A623B62396A7A6A41E862
:1040C4000023FB61FB69002BE5D100231846603710
:1040D400BD4680BDB53D0008E13E00081D3F000817
:1040E40080B489B000AF78607B681B680C33FB60D8
:1040F400FB6853E8003FBB60BB6823F0C003FB616F
:104104007B681B680C33FA69BA617B617969BA69A7
:1041140041E800233B613B69002BE5D17B68202209
:1041240083F8412000BF2437BD4680BC704780B46B
:1041340095B000AF78607B681B680C337B637B6B46
:1041440053E8003F3B633B6B23F49073FB647B6851
:104154001B680C33FA6C3A64FB63F96B3A6C41E804
:104164000023BB63BB6B002BE5D17B681B68143356
:104174003B623B6A53E8003FFB61FB6923F00103A8
:10418400BB647B681B681433BA6CFA62BB62B96A9D
:10419400FA6A41E800237B627B6A002BE5D17B68E5
:1041A4001B6B012B19D17B681B680C33FB60FB680C
:1041B40053E8003FBB60BB6823F010037B647B685B
:1041C4001B680C337A6CBA617B617969BA6941E81E
:1041D40000233B613B69002BE5D17B68202283F8F7
:1041E40042207B6800221A6300BF5437BD4680BC5E
:1041F400704780B584B000AF78607B685B6AFB6011
:10420400FB680022DA85FB680022DA84F868FCF790
:1042140007FF00BF1037BD4680BD80B485B000AF36
:1042240078607B6893F84130DBB2212B3ED17B6808
:104234009B68B3F5805F14D17B681B69002B10D198
:104244007B681B6AFB60FB681B881A467B681B68DB
:10425400C2F308025A607B681B6A9A1C7B681A6264
:1042640008E07B681B6A591C7A6811621A787B68BB
:104274001B685A607B68DB8C9BB2013B9BB27A68FB
:104284001946D184002B0FD17B681B68DA687B68E0
:104294001B6822F08002DA607B681B68DA687B683E
:1042A4001B6842F04002DA60002300E00223184653
:1042B4001437BD4680BC704780B582B000AF7860CB
:1042C4007B681B68DA687B681B6822F04002DA604E
:1042D4007B68202283F841207868FFF7DFFC002305
:1042E40018460837BD4680BD80B58CB000AF7860F5
:1042F4007B6893F84230DBB2222B40F0AE807B68BF
:104304009B68B3F5805F17D17B681B69002B13D1C1
:104314000023FB627B689B6ABB627B681B685B68EB
:104324009BB2C3F308039AB2BB6A1A807B689B6A88
:104334009A1C7B689A6226E07B689B6AFB62002376
:10434400BB627B689B68B3F5805F07D07B689B6822
:10435400002B0AD17B681B69002B06D17B681B6884
:104364005B68DAB2FB6A1A7008E07B681B685B68FA
:10437400DBB203F07F03DAB2FB6A1A707B689B6AD4
:104384005A1C7B689A627B68DB8D9BB2013B9BB2B3
:104394007A681946D185002B5DD17B681B68DA6881
:1043A4007B681B6822F02002DA607B681B68DA688D
:1043B4007B681B6822F48072DA607B681B685A6928
:1043C4007B681B6822F001025A617B68202283F813
:1043D40042207B6800225A637B681B6B012B35D11A
:1043E4007B6800221A637B681B680C337B617B69E2
:1043F40053E8003F3B613B6923F010037B627B6819
:104404001B680C337A6A3A62FB61F9693A6A41E8DB
:104414000023BB61BB69002BE5D17B681B681B686B
:1044240003F01003102B0AD10023FB607B681B6888
:104434001B68FB607B681B685B68FB60FB687B68D0
:104444009B8D19467868FFF74DFC02E07868FFF70A
:1044540037FC002302E0002300E002231846303733
:10446400BD4680BD80B584B000AF78607B681B68B2
:104474001B6923F440517B68DA687B681B680A4334
:104484001A617B689A687B681B691A437B685B695D
:104494001343BB607B681B68DB6823F4B05323F0D1
:1044A4000C037A681268B9680B43D3607B681B6895
:1044B4005B6923F440717B689A697B681B680A43D3
:1044C4005A617B681B682C4A934203D1FEF7D6FCE1
:1044D400F86002E0FEF7BEFCF860FA6813469B0041
:1044E40013449A001A447B685B689B00B2FBF3F3A5
:1044F400224AA2FB03235B091901FA6813469B00B5
:1045040013449A001A447B685B689B00B2FBF3F285
:104514001A4BA3FB02035B09642000FB03F3D31AC9
:104524001B013233154AA2FB03235B0903F0F0039A
:104534001944FA6813469B0013449A001A447B6892
:104544005B689B00B2FBF3F20C4BA3FB02035B0919
:10455400642000FB03F3D31A1B013233074AA2FB86
:1045640003235B0903F00F027B681B680A449A600B
:1045740000BF1037BD4680BD003801401F85EB5198
:10458400002310B50446C0E90033C0E90433836056
:1045940081814366C2818361194608225C3000F040
:1045A40006F90D4B246263620C4BA3620C4BE3626D
:1045B4000C4B23630C4B9C4206D003F168029442DB
:1045C40002D0D0339C4205D104F15800BDE810401C
:1045D40000F066B910BD00BF2D4700084F47000822
:1045E40087470008AB47000870140020024A0349BB
:1045F400034800F069B800BF0C02002059510008BC
:104604001C02002041680C4B10B59942044601D0AD
:1046140000F0A0FDA168094B994202D0204600F0A9
:1046240099FDE168064B994204D02046BDE810404C
:1046340000F090BD10BD00BF70140020D8140020FD
:104644004015002010B50B4B0B4C0C4A20461A6049
:1046540004210022FFF794FF04F1680001220921DC
:10466400FFF78EFF04F1D0000222BDE810401221B2
:10467400FFF786BFA815002070140020F14500083C
:10468400014800F00EB900BFB1150020014800F048
:1046940009B900BFB115002010B50446FFF7F0FFBB
:1046A400236A1BB1BDE81040FFF7F0BF044B23623F
:1046B400044B1B68002BF5D1FFF7C4FFF2E700BFE2
:1046C40009460008A81500202DE9F8430746884646
:1046D40014460026D4E90195B9F1010905D52468E9
:1046E400002CF7D13046BDE8F883AB89012B07D9FC
:1046F400B5F90E30013303D029463846C047064386
:104704006835E9E70FB407B5064904AB086853F800
:10471400042B8168019300F0F3F903B05DF804EB16
:1047240004B070471802002010B50C46B1F90E1001
:1047340000F068F80028ABBF636DA3891B1823F44D
:104744008053ACBF6365A38110BD2DE9F0411F46C2
:104754008B890546DB050C46164605D50223002247
:10476400B1F90E1000F03CF8A389324623F48053CB
:10477400A38128463B46B4F90E10BDE8F04100F091
:1047840053B810B50C46B1F90E1000F029F8431CCB
:10479400A38915BF606523F4805343F48053A38138
:1047A40018BFA38110BDB1F90E1000F009B803467B
:1047B4000244934200D1704703F8011BF9E700005B
:1047C40038B50023054D044608462B60FCF7C3F8B2
:1047D400431C02D12B6803B1236038BDAC15002003
:1047E40038B50446084611460022054D2A601A468B
:1047F400FCF7D5F8431C02D12B6803B1236038BD04
:10480400AC15002038B50446084611460022054D73
:104814002A601A46FCF766F8431C02D12B6803B1E0
:10482400236038BDAC15002038B50446084611464F
:104834000022054D2A601A46FCF771F8431C02D188
:104844002B6803B1236038BDAC150020014B1868F8
:10485400704700BF1802002070B500260C4D0D4CA7
:10486400641BA410A64209D100F0D2FD00260A4D13
:104874000A4C641BA410A64205D170BD55F8043B34
:1048840098470136EEE755F8043B98470136F2E7BE
:104894009C5400089C5400089C540008A054000830
:1048A4007047704770470A44914200F1FF3300D1CA
:1048B400704710B511F8014B914203F8014FF9D13B
:1048C40010BD000038B50546002940D051F8043C1D
:1048D4000C1F002BB8BFE41800F0DEF81C4A136864
:1048E40033B9636014602846BDE8384000F0DAB894
:1048F400A34208D9206821188B4201BF19685B685C
:1049040009182160EDE71A465B680BB1A342FAD996
:1049140011685018A0420BD12068014450188342FA
:104924001160E0D118685B68084410605360DAE7EE
:1049340002D90C232B60D6E7206821188B4201BFD3
:1049440019685B680918216063605460CBE738BD5F
:10495400B815002070B50F4E0C463168054611B9E4
:1049640000F0B4FC30602146284600F0AFFC431C44
:1049740003D14FF0FF34204670BDC41C24F003045F
:10498400A042F8D0211A284600F0A0FC0130F2D150
:10499400EFE700BFB41500202DE9F843CD1C25F046
:1049A400030508350C2D38BF0C25002D064601DB08
:1049B400A94204D90C2333600020BDE8F883DFF852
:1049C400D48000F069F8D8F800301C4644BB29466E
:1049D4003046FFF7BFFF431C044658D1D8F80040C7
:1049E4002746002F43D1002C4BD02368394630464C
:1049F40004EB030900F06AFC814542D1216830468A
:104A04006D1A2946FFF7A6FF01303AD023682B44DC
:104A14002360D8F800305A6862BBC8F800700FE011
:104A24002268521B20D40B2A17D96119A34225608E
:104A340018BF5960636808BFC8F8001062514B6022
:104A4400304600F02FF804F10B00231D20F007007E
:104A5400C21A1CBF1B1AA350AFE76268A3420CBF63
:104A6400C8F800205A60EBE723466468AEE73C468A
:104A74007F68B6E71A465B68A342FBD10023536004
:104A8400DEE70C233046336000F00CF894E7056051
:104A9400D6E700BFB81500200148FFF702BF00BFEA
:104AA400B01500200148FFF7FDBE00BFB01500207F
:104AB400936810B4013B002B936007DA9469A34216
:104AC40001DB0A2902D110BC00F06CBB1368581C2E
:104AD40010601970084610BC7047F8B506460F46BA
:104AE4001446D518AC4201D1002007E03A463046BE
:104AF40014F8011BFFF7DCFF431CF3D1F8BD0000E1
:104B04002DE9F04F0D461446984606469DB018B15F
:104B1400036A0BB9FFF7C0FD6B6ED90705D4AB89E7
:104B24009A0502D4A86DFFF7BCFEAB891B0701D51B
:104B34002B699BB92946304600F072FB70B16B6E4D
:104B4400DC0704D54FF0FF301DB0BDE8F08FAB8912
:104B54009805F7D4A86DFFF7A5FEF3E700230993A2
:104B640020238DF8293030234FF00109CDF80C8033
:104B7400DFF8A8818DF82A3023469A4613F8012BD2
:104B84000AB1252AF9D1BAEB040B0BD05B462246B5
:104B940029463046FFF7A1FF013000F0A780099AAB
:104BA4005A4409929AF80030002B00F09F800023A9
:104BB4004FF0FF32CDE905230AF1010A049307936C
:104BC4008DF853301A935446052214F8011B5348A8
:104BD40000F08CFB049AD8B9D10644BF20238DF889
:104BE4005330130744BF2B238DF853309AF8003009
:104BF4002A2B15D0544600204FF00A0C079A214660
:104C040011F8013B303B092B4BD9B0B1079214E0AA
:104C1400A0EB080309FA03F31343A2460493D2E773
:104C2400039B191D1B680391002BBBBF5B4242F021
:104C3400020207930793B8BF049223782E2B0AD15C
:104C440063782A2B32D1039B02341A1D1B6803920A
:104C540043EAE3730593DFF8C8A0032250462178A2
:104C640000F044FB38B14022049BA0EB0A008240D0
:104C740013430134049314F8011B062229488DF8C8
:104C8400281000F033FB00283FD0274B1BBB039BAD
:104C9400073323F0070308330393099B3B44099329
:104CA4006AE70C4601200CFB0232A8E700234FF010
:104CB4000A0C194601340593204610F8012B303AAA
:104CC400092A03D9002BC6D00591C4E70446012361
:104CD4000CFB0121F0E703AB00932A463046134B4B
:104CE40004A9AFF300800746781CD6D16B6ED907B0
:104CF40005D4AB899A0502D4A86DFFF7D3FDAB891F
:104D04005B063FF51FAF09981EE703AB00932A46E5
:104D14003046064B04A900F07DF8E4E76654000829
:104D24006C5400087054000800000000DF4A0008BA
:104D34002DE9F047164698468A680B690746934260
:104D4400B8BF1346336091F843200C46DDF8209039
:104D54000AB1013333602368990642BF33680233D2
:104D64003360256815F0060506D104F1190AE368D5
:104D740032689B1AAB422BDC94F843302268003B28
:104D840018BF0123920630D44146384604F1430249
:104D9400C847013023D02368226903F00603042B9B
:104DA40014BF002533684FF0000608BFE56804F11E
:104DB4001A0408BFED1A54F8123C08BF25EAE57539
:104DC4009342C4BF9B1AED18B5421AD1002008E0E3
:104DD4000123524641463846C847013003D14FF0BB
:104DE400FF30BDE8F0870135C1E73020E11881F8D4
:104DF40043005A1C94F845102244023382F84310AD
:104E0400C2E70123224641463846C8470130E6D06E
:104E14000136D9E72DE9FF470F7E9146782F80466A
:104E24000C469A460C9E01F1430207D8622F0AD819
:104E3400002F00F0D380582F00F0BA8004F142060E
:104E440084F842703AE0A7F16303152BF6D801A168
:104E540051F823F0B14E0008C54E0008414E000839
:104E6400414E0008414E0008414E0008C54E00085E
:104E7400414E0008414E0008414E0008414E0008D2
:104E8400C74F0008EF4E0008814F0008414E00084C
:104E9400414E0008E94F0008414E0008EF4E00085B
:104EA400414E0008414E0008894F000833681A1D1E
:104EB4001B68326004F1420684F8423001239EE00C
:104EC40033682068191D3160060601D51D6803E0AA
:104ED4004506FBD5B3F90050002D03DA2D236D42AE
:104EE40084F843300A23594811E0216833680806DE
:104EF40053F8045B02D4490648BFADB26F2F336048
:104F040014BF0A2308235148002184F8431066681B
:104F1400002EA8BF2168A660A4BF21F0040121606F
:104F24000DB9002E4BD01646B5FBF3F103FB115718
:104F3400C75D06F8017D2F46BB420D46F4D9082B08
:104F44000BD12368DF0708D5236961689942DEBF66
:104F5400302306F8013C06F1FF36921B22614B46D2
:104F640021464046CDF800A003AAFFF7E1FE013038
:104F74004AD14FF0FF3004B0BDE8F087236843F016
:104F8400200323607827324884F845702368316809
:104F94001F0651F8045B02D45F0648BFADB231600E
:104FA400D90744BF43F0200323601DB11023ABE7AE
:104FB4002648E9E7236823F020032360F6E7164632
:104FC400BDE733682568181D616930602E061B68CB
:104FD40001D5196002E06806FBD519800023164646
:104FE4002361BCE7336800211A1D32601E686268C1
:104FF400304600F07BF908B1801B60606368236170
:10500400002384F84330AAE73246494640462369E0
:10501400D0470130ADD023689B0713D4E068039BCD
:105024009842B8BF1846A6E701233246494640468F
:10503400D04701309DD00135E36803995B1AAB4238
:10504400F2DCEBE7002504F11906F5E777540008D4
:1050540088540008B1F90C20F8B5160705460C462B
:1050640054D44B68002B02DC0B6C002B48DDE66A41
:10507400002E45D0002312F480522F68216A2B6041
:1050840030D0626DA389590705D56368D21A636B62
:105094000BB1236CD21A00232846E66A216AB04772
:1050A400431CA38906D129681D292BD8284A0A4103
:1050B400D60727D4002262602269D904226004D56D
:1050C400421C01D12B6803B96065616B2F60B9B1D3
:1050D40004F14403994202D02846FFF7F3FB00236E
:1050E40063630DE001232846B0470246501CC9D132
:1050F4002B68002BC6D01D2B01D0162B1DD12F6081
:10510400002021E043F040031BB21AE00F69002F96
:10511400F6D0930718BF00230E6808BF4B69F61B2F
:105124000F608B60002EEBDD33463A462846216A39
:10513400D4F828C0E047002807DCB4F90C3043F069
:1051440040034FF0FF30A381F8BD0744361AE9E766
:10515400FEFFBFDF38B50B6905460C4613B90025C1
:10516400284638BD18B1036A0BB9FFF795FAB4F9AC
:105174000C30002BF3D0626ED00704D4990502D40E
:10518400A06DFFF78EFB28462146FFF763FF636E91
:105194000546DA07E4D4A3899B05E1D4A06DFFF7A3
:1051A40081FBDDE7F8B50E461446054618B1036ADF
:1051B4000BB9FFF771FAA369A360A3891A0701D594
:1051C400236943B92146284600F02AF818B14FF064
:1051D400FF373846F8BD23682269F6B2981A636926
:1051E4003746834205DC21462846FFF7B3FF0028F3
:1051F400EDD1A368013BA36023685A1C22601E7092
:105204006269431C9A4204D0A389DB07E1D50A2EC4
:10521400DFD121462846FFF79DFF0028D9D0D6E7E5
:1052240038B5294B054618680C4618B1036A0BB902
:10523400FFF732FAB4F90C30190722D4DA0607D48E
:1052440009222A6043F040034FF0FF30A38133E08A
:10525400580712D5616B41B104F14403994202D05D
:105264002846FFF72FFB00236363A38923F024035D
:10527400A3810023636023692360A38943F00803A7
:10528400A38123694BB9A38903F42073B3F5007F89
:1052940003D02146284600F05CF8B4F90C3013F032
:1052A40001020AD00022A26062695242A26122690C
:1052B40042B913F08000C5D138BD990758BF62695F
:1052C400A260F4E70020F7E71802002038B50023B5
:1052D400054D044608462B60FBF76EFB431C02D1C8
:1052E4002B6803B1236038BDAC150020034610B50C
:1052F400C9B202449342184601D1002003E0047865
:1053040001338C42F6D110BD70B50C46B1F90E10C4
:10531400154600291E4696B00CDAA389002113F025
:10532400800F14BF40234FF48063002031602B6052
:1053340016B070BD6A4600F049F80028EDDB01990B
:1053440001F47041A1F50053594259414FF480636F
:10535400EBE78B89F7B59D0706460C4607D504F1A4
:105364004703236023610123636103B0F0BD6A46F0
:1053740001ABFFF7C9FF009F054639463046FFF7EA
:105384000BFB48B9B4F90C309A05EED423F00303AF
:1053940043F00203A381E2E7A389C4E9040743F0CD
:1053A4008003A381019B20605BB13046B4F90E10E9
:1053B40000F01EF828B1A38923F0030343F001038E
:1053C400A381A3891D43A581CFE7000038B500233D
:1053D400064D0446084611462B60FBF7C7FA431CEA
:1053E40002D12B6803B1236038BD00BFAC15002087
:1053F40038B50023054D044608462B60FBF7C5FA73
:10540400431C02D12B6803B1236038BDAC150020C6
:10541400F8B500BFF8BC08BC9E467047F8B500BF9D
:08542400F8BC08BC9E4670476D
:10542C0025640D0A00000000256C640D0A000000C4
:10543C000000000000000000010203040607080938
:10544C00000000000102030402030405060708091A
:10545C000A0B0C0D0E0F10100102232D302B200007
:10546C00686C4C0065666745464700303132333412
:10547C0035363738394142434445460030313233B2
:10548C003435363738396162636465660000000074
:04549C0009020008F9
:0454A000E50100081A
:1054A40000127A0000002110422063308440A5508D
:1054B400C660E770088129914AA16BB18CC1ADD156
:1054C400CEE1EFF13112100273325222B5529442FE
:1054D400F772D662399318837BB35AA3BDD39CC3A6
:1054E400FFF3DEE36224433420040114E664C7744A
:1054F400A44485546AA54BB528850995EEE5CFF5F6
:10550400ACC58DD55336722611163006D776F6669D
:105514009556B4465BB77AA719973887DFF7FEE745
:105524009DD7BCC7C448E5588668A7784008611869
:1055340002282338CCC9EDD98EE9AFF94889699995
:105544000AA92BB9F55AD44AB77A966A711A500A3D
:10555400333A122AFDDBDCCBBFFB9EEB799B588BE5
:105564003BBB1AABA66C877CE44CC55C222C033C89
:10557400600C411CAEED8FFDECCDCDDD2AAD0BBD35
:10558400688D499D977EB66ED55EF44E133E322EDD
:10559400511E700E9FFFBEEFDDDFFCCF1BBF3AAF85
:1055A400599F788F8891A981CAB1EBA10CD12DC1E3
:1055B4004EF16FE18010A100C230E3200450254079
:1055C40046706760B9839893FBA3DAB33DC31CD3D9
:1055D4007FE35EF3B1029012F322D23235421452C9
:1055E40077625672EAB5CBA5A89589856EF54FE525
:1055F4002CD50DC5E234C324A01481046674476419
:1056040024540544DBA7FAB79987B8975FE77EF778
:105614001DC73CD7D326F2369106B0165766767668
:10562400154634564CD96DC90EF92FE9C899E98944
:105634008AB9ABA94458654806782768C018E108B8
:105644008238A3287DCB5CDB3FEB1EFBF98BD89B18
:10565400BBAB9ABB754A545A376A167AF10AD01A08
:10566400B32A923A2EFD0FED6CDD4DCDAABD8BAD64
:10567400E89DC98D267C076C645C454CA23C832C58
:10568400E01CC10C1FEF3EFF5DCF7CDF9BAFBABFB8
:10569400D98FF89F176E367E554E745E932EB23EA8
:1056A400D10EF01E100000000100000000000000F8
:1056B40003000000701400201C0200200000000001
:1056C40070140020D81400204015002000000000B1
:1056D40000000000000000000000000000000000C6
:1056E40000000000000000000000000000000000B6
:1056F40000000000000000000000000000000000A6
:0857040000000000000000009D
:0400000508000A35B0
:00000001FF
